:10000000C02F0020DD30000051840000C930000006
:10001000C9300000C9300000C930000000000000F5
:100020000000000000000000000000004532000059
:10003000C930000000000000E1310000C9300000BC
:10004000FD330000FD330000FD330000FD330000F0
:10005000FD330000FD330000FD330000FD330000E0
:10006000FD330000FD330000FD330000FD330000D0
:10007000FD330000FD330000FD330000FD330000C0
:10008000FD330000FD330000FD330000FD330000B0
:10009000FD330000FD330000FD330000FD330000A0
:1000A000FD330000FD330000FD330000FD33000090
:1000B000FD330000FD330000FD330000FD33000080
:1000C000FD330000FD330000FD330000FD33000070
:1000D000FD330000FD330000FD330000FD33000060
:1000E000FD330000FD330000FD330000FD33000050
:1000F000FD330000FD330000FD330000FD33000040
:1001000053B94AB9002908BF00281CBF4FF0FF317E
:100110004FF0FF3000F00CB8ADF1080C6DE904CEE3
:1001200000F010F8DDF804E0DDE9022304B07047C8
:10013000704700BF034613F8012B002AFBD1181AA1
:10014000013870472DE9F04786468C460846089EE0
:10015000154674461946002B40F0C2808542B2FA1B
:1001600082F245D94AB1C2F1200300FA02FC2EFA0C
:1001700003F3954043EA0C0C94404FEA154EA8B2A5
:10018000BCFBFEF8230C0EFB18CC08FB00F943EA7D
:100190000C43994528D9EB1808F1FF3704D299454B
:1001A00002D9A8F102072B44A3EB0903A4B2B3FBC5
:1001B000FEFC0EFB1C330CFB00F044EA0344A0429F
:1001C00014D92C190CF1FF3304D2A04202D9ACF19E
:1001D00002032C44241A43EA07401EB1D4400023F2
:1001E00034607360BDE8F0874746DDE76346F1E7BA
:1001F00092BB431B01214FEA154EAFB2B3FBFEFC8D
:10020000200C0EFB1C330CFB07F840EA0343984517
:1002100062D9EB180CF1FF3004D2984502D9ACF149
:1002200002002B44A3EB0803A4B2B3FBFEFC0EFBBD
:100230001C330CFB07F744EA0344A7424ED92C19A0
:100240000CF1FF3304D2A74202D9ACF102032C44D3
:10025000E41B43EA0040C0E7C2F1200320FA03F1A7
:10026000954090402EFA03F303434FEA154EAFB288
:10027000B1FBFEFC0EFB1C10190C0CFB07F841EA4D
:100280000041884504FA02F422D969180CF1FF30C4
:1002900004D2884502D9ACF102002944A1EB08013F
:1002A0009BB2B1FBFEFC0EFB1C110CFB07F743EAF3
:1002B00001439F420ED9EB180CF1FF3104D29F424B
:1002C00002D9ACF102012B44DB1B41EA004192E769
:1002D0006046E3E76146F7E76046A3E76346B7E7B2
:1002E000834206D916B9002108467BE7C6E900E03B
:1002F000F9E7B3FA83F78FB9834201D3724508D87F
:10030000BEEB020460EB030301209C461EB90021F2
:1003100068E73846FAE7C6E9004CF8E7C7F1200C71
:10032000BB4022FA0CF41C432EFA0CF120FA0CF319
:10033000B84001434FEA14490EFA07F5B3FBF9F848
:100340001FFA84FE09FB18300B0C08FB0EFA43EA77
:1003500000439A4502FA07F240D9E31808F1FF304A
:1003600004D29A4502D9A8F102002344A3EB0A0360
:1003700089B2B3FBF9F809FB183308FB0EFE41EA1A
:1003800003418E452CD9611808F1FF3304D28E4504
:1003900002D9A8F10203214443EA0040A0FB0298DD
:1003A000A1EB0E014145CE46434602D306D14D4551
:1003B00004D2B9EB020E68EB04030138002EA6D07C
:1003C000B5EB0E0261EB030101FA0CFC22FA07F314
:1003D0004CEA0303F940C6E9003198E74046C5E717
:1003E0004346D9E70000000010B582B026A1D1E94C
:1003F000000100F0A1F8022000F0B0FA041E0DDBAD
:10040000092000F0A5FA041E0EDB4FF40042002381
:10041000CDE90023164806F0AFFA19E0154A01218C
:10042000154807F0DDFE1EE0144A0121124807F0CE
:10043000D7FE18E04FF0FF324FF0FF33104805F0C1
:10044000BFFB06F073FF204600F0E8FA06F07DFFE0
:1004500000F078F804460028ECD10A4A0121064849
:1004600007F0BEFE0124204602B010BDAFF30080AD
:10047000C0070020D8A80000CC9F0000F0A8000012
:100480006808002008A90000899698000000000074
:100490000023072B05D8064AD25C824201D20133E1
:1004A000F7E7072B01D8184670476FF01500704723
:1004B00068A00000F0B5044603681D48A0FB0303D4
:1004C000B2EB930F31D34FF0000C6046E646654621
:1004D000236863452BD904EBDC031B7A0CF007027D
:1004E000134103F00102CEF10506124B83FB0673A4
:1004F000A3EBE67303EB4303A6EB430302FA03F318
:100500002B43DDB20EF1010E0CF1010C084BA3FBE5
:100510000C239B0803EB4303BCEB430FD8D141F8FA
:10052000205001300025AE46D2E76FF01500F0BD37
:10053000ABAAAAAAABAAAA2A014BC3E90001704739
:100540007808002070B5B2B01AA806F055FF4FF039
:10055000FF324FF0FF33644805F032FB222263493B
:100560001AA806F024FF0028C0F2B3800A226049CE
:100570001AA806F01CFF0028C0F2AB805C4A138862
:10058000013313800323ADF8C23010220DF1C201F4
:100590001AA806F00CFF0028C0F29B80554B1A7871
:1005A000D20055491AA806F002FF0028C0F2918037
:1005B0004D4805F0C3FA01228DF8C42031A91AA8CC
:1005C00006F0F5FE0028C0F28A8000238DF8C530C1
:1005D0001A9B4A4AA2FB0312920802EB4202A3EBC7
:1005E0004202C2F106020DF1C5011AA806F0DFFEB3
:1005F000002876DB1A9D414BA3FB0535C5F3870523
:100600002846FFF745FFC4B23D4B1A5D521B12F05E
:10061000FF020ED00023ADF8C63002EB42025200BA
:100620000DF1C6011AA806F0C2FE00281EDB013536
:10063000EDB22C2201A91AA8FFF73CFF4FF0FF32C0
:100640004FF0FF33284805F0BBFA00F02DFA2D4B90
:100650001E5D7608304600F079FA3246294601A838
:1006600000F0DAFA00239C46194610E0002034E03E
:10067000254A1268D45408E050F82C50224A1268D7
:10068000D5540CF1010C5FFA8CFC0133DBB21F4A2C
:10069000125D9A4215D9122B04D81D4ADA4012F085
:1006A000010FE5D1164A125D8A42E5D932AA02EB62
:1006B000810252F8C45C144A1268D5540131C9B29F
:1006C000E3E7094805F03AFA104B1B5D0E4843601A
:1006D00003E0054805F032FA002032B070BD00207A
:1006E000FBE70020F9E700BF480800207808002059
:1006F000941A0020961A0020000F0020ABAAAAAA84
:1007000068A0000060A00000C004002058A0000005
:10071000010204001E4AD2F86C3743F04043C2F88D
:100720006C37002825DB84461A4B03EB400393F912
:1007300001301749D1F88C2522F47F0242EA0342A6
:10074000D1F8883523F0004323F47C13114911F9C3
:100750001C1043EA014343F00043002812DB0C491C
:100760000020C1F850060A49C1F88C25C1F8883527
:100770007047C0F1000C074BA3EB40035B785B4272
:100780005BB2D6E702494FF48070C1F85006EAE741
:1007900000100040B8A0000008B50C4806F0DAFFD1
:1007A0000B4BD3F830312BB1094B0022C3F8302169
:1007B000D3F83031064BD3F80C312BB1044B002267
:1007C000C3F80C21D3F80C3108BD00BF70A00000A5
:1007D0000010004010B582B01A4BD3F88C151A4A9D
:1007E0001160D3F88815194A1160D3F86C17184AAC
:1007F0001160D3F85026174B1A60174808F0B5FF60
:10080000B0B106F072FD144883681B680021984758
:10081000041E13DB002400942346104A0621012005
:1008200007F054FE012007F040FE204602B010BD44
:100830000B4806F08FFF6FF01204F6E7094806F048
:1008400089FFF2E700100040640F0020600F0020D5
:10085000580F00205C0F0020209F00009907000027
:1008600080A0000098A00000144B0022C3F80022D2
:100870004FF0FF31C3F80813C3F81021D3F810214B
:1008800001221A610D4BD3F81031002BFAD00B4B1B
:100890000022C3F81021D3F81021094A1268C3F8C6
:1008A0008C25084A1268C3F88825074A1268C3F8DD
:1008B0006C27064A1268C3F85026704700100040A3
:1008C000640F0020600F0020580F00205C0F0020F4
:1008D00008B50B4B0322C3F81025D3F8002242F0D1
:1008E0000102C3F80022074A1278C3F80C255322EC
:1008F000C3F80825044B1868FFF70CFF002008BD5B
:1009000000100040F9050020680F002008B5FFF72F
:10091000ABFFFFF7DDFF044B01221A60024BD3F857
:100920005431002BFAD008BD0010004008B500F586
:100930008063B3F5006F05D8044B1860FFF7EAFE3B
:10094000002008BD6FF01500FBE700BF680F002016
:10095000014B187000207047F8050020283030281F
:1009600054D8DFE800F04F5353535353535353536A
:10097000535353535353535353534B53535347535B
:10098000535353535353435353533F5353533B5373
:1009900037332F2B272319001E4B08221A701D4BAB
:1009A0001A781D4BC3F80C2500207047194B0722FD
:1009B0001A70F4E7174B06221A70F0E7154B052260
:1009C0001A70ECE7134B04221A70E8E7114B03226C
:1009D0001A70E4E70F4B02221A70E0E70D4B002279
:1009E0001A70DCE70B4BFC221A70D8E7094BF8228F
:1009F0001A70D4E7074BF0221A70D0E7054BEC22AF
:100A00001A70CCE7034BD8221A70C8E76FF01500B4
:100A1000704700BFF90500200010004038B50546BA
:100A20000020FFF783FF002838DB002405E04FF4A7
:100A3000165008F094FE0134E4B2072C12D8184B7B
:100A40001B57B3F1FF3FF2D0164B18788001FFF728
:100A50006DFFFFF75BFF4FF4FA5008F080FEFFF7E1
:100A600003FFE8E7002415E02B681B5D0D4A1078B2
:100A700003EB8010FFF75AFFFFF748FF4FF4FA50DF
:100A800008F06DFEFFF7F0FE4FF4E16008F067FE3E
:100A90000134E4B26B689C42E6D3002038BD00BF4D
:100AA000B0A00000F80500200023254A9361012131
:100AB00001E049000133052B30DC214A42F82310C4
:100AC000204A42F82130204A52F82320002AF0D050
:100AD0001B4882694A408261EBE75200184840F89F
:100AE0002320174A52F82300164A42F820300133D7
:100AF0003E2B0DDC5A1E124850F822208A42ECDBB5
:100B0000044680694A4080EA420044F82300E8E74E
:100B10000C4B4FF0FF321A6010BC7047084B9A69BB
:100B2000084B062043F82200491007233E2B01DC26
:100B300010B4DFE7034B4FF0FF321A60704700BF7D
:100B40002011002020100020BCA8000030B52E4A43
:100B500002231360012151609E463CE05A1E2A493F
:100B600051F8222041F82320013B002B1DDD264AAD
:100B700052F82320002AF1D0591E234C54F821505A
:100B8000224951F822107144214A82FB012C8C44E5
:100B9000CA17C2EB6C12C2EB82128A1A1D4951F8B5
:100BA00022206A4044F82320DEE7174C2268174BC6
:100BB00053F822207244164981FB02311144D317A5
:100BC000C3EB6113C3EB8313D31A124A52F82330D9
:100BD00023600EF1010E4100BEEB400F06DC0A4B14
:100BE000012243F82E200EF1FF33BEE7002308E078
:100BF000054A52F82340054850F8240042F82300E3
:100C000001339942F4DA30BDC40F002020100020D7
:100C100083200882201100202DE9F04307468846F2
:100C20001646002304E03C4A002142F82310013319
:100C30004FEA4609B3EB460FF5DB00253AE0591EB3
:100C4000354850F8211002EB040C344A82FB0CE2C8
:100C500062444FEAEC7ECEEB621ECEEB8E1EACEB16
:100C60000E0E2F4A52F82E20514040F82310013B1F
:100C7000002B0CDD2B4A52F82320B2F1FF3FDED1CE
:100C80005A1E254951F8222041F82320EFE7254B31
:100C90001A682244214981FB02311144D317C3EB66
:100CA0006113C3EB8313D31A1D4A52F823201A4B46
:100CB0001A60013545451BDA57F8252009F1FF3345
:100CC000154951F823104A40174951F82240B4F110
:100CD000FF3FCDD106E05A1E0F4850F8221040F8D1
:100CE00023101346002BF6DC0B4B00221A60E0E7C2
:100CF00000230CE0084A52F82300A9EB0301013954
:100D000052F8214042F8234042F821000133B34217
:100D1000F0DB0148BDE8F0836C0F002083200882DF
:100D200020110020C40F00202010002008B5024828
:100D300004F004FF08BD00BF680800202DE9F04F53
:100D400091B005920293134602F004020092C3F39D
:100D5000C20210F00303019340F02B8280468A46C2
:100D60000132041D00284FD0B8F1000F05D0A4EBCC
:100D700008030433534500F21F82029B5D1E019B52
:100D800004930693039300264FF0FF3B0427B946D4
:100D9000B8F1000F01D0029B2360531E0793002A75
:100DA00040F35D81059B13F0020228D00120A4EBE3
:100DB00008018B081AB1B1F5007F80F00382039916
:100DC0000F2900F20282B8F1000F00F06081DBB25F
:100DD00001F140026A4402F8103C02F820BC0028ED
:100DE00000F0518163F07F0301F140026A4402F890
:100DF000103C049B01330493039B0133039304349D
:100E00000022CC4640463DE001F0070A5444CAF1B6
:100E1000080AA9E7002634E0002632E0002630E088
:100E20000827BC462DE025292BD10BF1010B01260B
:100E30000427BC4625E04729EED82A2914D32A39AD
:100E4000C9B24FF0010E0EFA01F14FF6DA7E11EA47
:100E50000E0F16D111F0625F40F0C08011F0010F4B
:100E600040F08C8000260CE0252903D10BF1FF3BDC
:100E7000002606E001D9002603E0202901D023291D
:100E8000CCD11D466B1C6978002900F01981002E19
:100E9000C9D07A29BED84C29CDD34C392E2961D856
:100EA0000FF2040E5EF821F0830E0000650F0000C3
:100EB000650F0000650F0000650F0000650F000062
:100EC000650F0000650F0000650F0000650F000052
:100ED000650F0000650F0000750F0000650F000032
:100EE000650F0000650F0000650F0000650F000032
:100EF000650F0000650F0000650F0000DD0F0000AA
:100F0000650F0000750F0000750F0000DD0F000079
:100F1000DD0F0000DD0F0000830E0000750F0000E4
:100F2000210E0000650F0000830E0000650F000019
:100F300039100000750F000039100000650F000027
:100F4000650F0000411000006F0F0000750F0000DA
:100F5000650F0000650F0000750F0000650F0000B1
:100F6000690F000000268CE70427BC4689E70427A8
:100F7000BC4686E729786C2924D000263C44013CF5
:100F8000B4FBF7F407FB04F420B1211A6144514586
:100F900000F21581002A58D1BCF1040F00F08880BE
:100FA000BCF1080F40F014811A99073121F00701B4
:100FB00001F108051A95D1E9008908B1C4E9008951
:100FC00008345EE713F8021C6C2903D000260427BE
:100FD000BC46D3E700260827BC46CFE729784C2932
:100FE0001AD01A99073121F0070101F108061A9663
:100FF000D1E90067073424F0070440B1211A083111
:10100000514513D829784C2913D0C4E90067083416
:1010100000260827BC4634E71A99073121F007015A
:1010200001F108061A96D1E90067E3E76FF01B00AB
:10103000BCE0C4E90067EAE700260427BC469DE758
:10104000324600260427BC4698E7E14680461A9AB5
:10105000111D1A9112680292079A1D4698E6624B7A
:10106000029A9A4204D3614B9A420AD3002300E0C9
:101070000023002B7FF496AE059B03F002020020B4
:1010800095E60123F5E7069B01330693B4E610B11C
:101090000AF1010AB0E6009B13B10AF1020AABE6BD
:1010A0000298FFF747F80AEB000303F1020AA3E6F0
:1010B0001A990D1D1A95096800B121600434E0E603
:1010C0008046231AB3F5806F80F0858090B10022AE
:1010D00002609B080370009B83B1069BC370049B56
:1010E00088F802301BBB019DDDF80C90DDF810B0D4
:1010F000029F3DE05344A3F1080057E0069B437074
:10110000EDE701339842EED903F140026A4412F848
:10111000101C12F9102C002AF3DA01F07F01A4EB65
:1011200008020132524559D804F8011BE9E7019B36
:101130000398E7E7009B43B305F140036B4413F8C2
:10114000203C04F8013B019EA4EB08033344013327
:10115000534546D805F140036B4413F8103C04F89E
:10116000013B32463946204608F016FE344401352C
:10117000A94519D9BBF1000FDCD005F140036B4440
:1011800013F9103C002BD5DAF1E705F140036B446D
:1011900013F8103C58F82370002248F823203846F2
:1011A000FEF7C8FF461CCFE7A4EB080011B0BDE86E
:1011B000F08F6FF00D00F9E76FF01B00F6E76FF0AE
:1011C0001B00F3E76FF01500F0E76FF01500EDE797
:1011D0006FF01500EAE76FF01500E7E76FF01B000E
:1011E000E4E76FF01B00E1E7B09E0000ACB5000043
:1011F0002DE9F04F97B000AF8346BA613B61D7F855
:101200008030C3F3C0033B62F96011B906F01AFAEB
:10121000F8609BF80260B14636B1D7F8803013F021
:10122000010F0DD1002300E000239BF803207A6218
:1012300042B1D7F8802012F0020F22D1002202E042
:101240000123F2E7002202B9EBB19BF80050AA009B
:10125000BA60DBF804207A610BEB8505BA69F2B15C
:10126000002B40F00481B9F1000F00F00F81D7F896
:10127000803013F0040F40F00D810020F861064625
:10128000F9E00122DFE7BB691BB13A69F96858460A
:101290009847FC6820465C37BD46BDE8F08FFC6887
:1012A000E3B94D4400233B6123E00444013501369A
:1012B0004E451AD22A7800235BF822201946B869D5
:1012C00006F0D5F9BAF1000FEFD0D7F8883098457D
:1012D000EBD22AF8180008F10108E6E70026C7F863
:1012E0001C80B046D7F884A0E2E7C7F81080D7F892
:1012F0001C80D7F8803003F00503FB604FF0000A34
:10130000A146C7F81CB09CE000253B6A7BB9002DC4
:1013100079D0D7F8803013F0010F79D1FB68002B1A
:101320006FD10223A9EB030988E00125EDE75946B7
:10133000786906F0E2F90028E9D06C46002387F8C6
:101340002C30022387F82D308AB0694611F1100243
:1013500037D012251AB1042D01DDB34B4B610023A8
:1013600087F82830022387F829306ABB112D45DD24
:10137000122362B1042087F82C00002087F82D008A
:1013800087F82E00012087F82F00F86A08616FF3B4
:1013900000086FF341086FF382086FF3C50802215C
:1013A00061F38818C3F30A0363F353286FF31F58DC
:1013B000002341469D4800F07BFDA546A9F10209A6
:1013C0003CE06FF00045C5E72B46082D01DD78694C
:1013D00088610C2B01DDC1F81CB001F12003002055
:1013E00009E000F1300C07F1280EF4441CF830CC71
:1013F00003F801CB01300128F3D9B7E76FF01B03E5
:10140000B7E701238EE7D7F8803013F0020F15D02D
:10141000002322461946B86906F029F9D7F8843026
:1014200053B13B69D7F88820934205D2D7F884207E
:1014300022F8130001333B61013881440AF1010AAB
:1014400035467B6A9A4510D22E4616F802BB6B7859
:10145000FA6952F82340764B9C42FFF455AF754B26
:101460009C42FFF462AF00254FE74C4612E707F1BC
:1014700044000023FB6118B14A46294608F08CFC61
:101480004D444FF00008C7F804901EE00020F861BA
:101490000646F0E7FE6107F134000026EBE7002581
:1014A0003B6A33BB002D3BD0D7F8803013F0010FDF
:1014B00026D0731C06F1300207F12801561806F8F1
:1014C000149CDEB208F1010825467B6A98454AD291
:1014D0002C4614F802AB95F801905BF82930544A79
:1014E0009342DCD3534A934201D30025D8E7012528
:1014F000D6E75146786906F000F90028D2D0E1E736
:10150000D7F8803013F0040FDCD0FA69531C303266
:1015100007F128010A4402F8249CDBB2FB61D1E701
:10152000D7F8803013F0020F09D0731C06F1300297
:1015300007F12801561806F8149CDEB2C2E7F869D4
:10154000431C00F1300107F128028A1802F824AC8C
:1015500002460232D2B2FA6107F1580252FA83F31C
:1015600003F8249CAEE7D7F804909BF8003087F886
:1015700054309BF80130334487F85530D7F8803029
:1015800013F0020F0ED1FB69C3F3470387F85730FE
:10159000D7F8803013F0010F06D113F0040F3ED1BD
:1015A000002302E00023F1E7002387F85630DBF840
:1015B00000003863786DCBF80000D7F81080424601
:1015C000B9685846D7F818A0D047041EFFF662AE97
:1015D000386BCBF80000C7F810804246F96907F174
:1015E0003400D04700285EDB04EB0008B9684944AA
:1015F0007B6A01EB4301D7F810904A46FB68591A01
:101600002846D047041EFFF645AE08EB04054FF010
:101610000008C7F824B0B3465446CA4621E0FB6927
:10162000C3E74FF0000909E030A90000BC9F0000AB
:10163000B09E0000ACB500004FF0000952460121F9
:1016400007F12C00A04700282FDB05444B4632460B
:101650005146204606F00BF8002828DB054408F127
:101660000108D84518D208F1300307F128021344C5
:1016700013F8143C87F82C307A6A52F82360D7F8B4
:101680008430002BCDD0D7F888309845D4D2D7F805
:10169000843033F81890D1E73A6900210846BB69D5
:1016A00098472C46F6E50446F4E50446F2E5044680
:1016B000F0E500BF014B1860704700BFC804002070
:1016C00080B505460E461746984604F057FE034679
:1016D00008F0E4FB0446DFF8189049F80030424671
:1016E00039463046A84754F8090001F05FFD00BFB5
:1016F000080000002DE9F04383B004460846154673
:10170000238B13F0080F05D103F007060023009385
:10171000019354E0012909D043F02003238385F38A
:101720001188BFF36F8F03B0BDE8F08343F010035F
:101730002383F4E7204606F041FB42E0D4F81490FE
:101740004A466946204606F052FB4FF00008238BBC
:1017500003F00707B74269D0A268002A66D00122C9
:1017600043F00803238385F31188BFF36F8F002AAA
:1017700064D1009B2BB14B463A466946204606F0A1
:10178000AFFBB8F1000F02D034492046C047EFF359
:101790001185202383F31288BFF36F8F238B23F0EF
:1017A00008032383238B13F0100F4DD023F0100375
:1017B00023830120268B06F007060028AFD00228DD
:1017C000B8D00028ABD0013804282BD801A353F897
:1017D00020F000BF3D17000025180000E9170000A9
:1017E000FD170000111800002369D3F800800621BE
:1017F000204606F0B9FA4FF00009A8E72369D3F8AC
:1018000004800421204606F0AFFA4FF000099EE75D
:101810002369D3F808800521204606F0A5FA4FF089
:10182000000994E74FF00008C14690E7009A0AB11A
:10183000002295E7B8F1000F92D1B3E74A46394646
:10184000204606F099FA94E713F0200F04D023F015
:10185000200323830220ADE70020ABE70F7F0000C9
:1018600038B505460B4C00E010340B4B9C420FD2B0
:1018700063685B79002BF7D02946204606F008FC08
:101880000028F1D023681B68294620469847EBE7DB
:1018900038BD00BF14A0000034A0000070B506469B
:1018A0000D46084C04E02A4631462046984710343D
:1018B000054B9C4204D223689B69002BF3D1F6E7C9
:1018C00070BD00BF14A0000034A000002DE9F0415D
:1018D000074605460AE007EA0807144B03EB061320
:1018E0005B6804221968204600F0B4FAD5B195FA75
:1018F000A5F6B6FA86F60D4C04EB06140123B340A8
:101900006FEA030825EA0305237B002BEED03301A1
:10191000064AD3581B69002BDDD020469847002883
:10192000E4D1D8E73846BDE8F08100BF14A000003C
:101930002DE9F04180460F46204BBFF35B8F53E803
:10194000005F6A1C43E800210029F8D1BFF35B8FD8
:10195000002D2FD11A4C002607E063680422196875
:10196000204600F077FA01361034164B9C4213D211
:10197000237B002BF7D02368DB680BB12046984708
:1019800023681B69002BE8D0204698470028E4D044
:101990000123B3401D43E6E7B8F1000F0BD055B16A
:1019A0002846FFF793FF0546002FF8D00A2006F0DF
:1019B00075FBF4E700252846BDE8F08134120020CD
:1019C00014A0000034A0000008B5064B186018B140
:1019D000054B1B68092B00DC08BD044804F0AEF879
:1019E000FAE700BF2812002030120020580800201B
:1019F00008B5024804F0A2F808BD00BF580800204E
:101A000030B589B000220F490F4808F0A6F90F4DF4
:101A100000220023CDE90623002404940E2303931F
:101A20000294019400940A4B4FF4407209492846ED
:101A300007F0CFFF0849284607F0BBFF204609B052
:101A400030BD00BFF1190000080D00208008002003
:101A5000AD1D0000C01A0020E8A90000014B53F89A
:101A60002000704704AA000048B108B5054A10607C
:101A7000054B1960084600F00FFD002008BD6FF00F
:101A800015007047CC0400202412002008B5054B37
:101A90001B781BB1034B01221A7008BD024804F0E9
:101AA0004DF8F7E7971A00205808002008B5104BAA
:101AB000BFF35B8F53E8001F013143E80012002A97
:101AC000F8D1BFF35B8F30B90A4808F052F90A48E1
:101AD00004F034F808BD094BBFF35B8F53E8001FD7
:101AE000013943E80012002AF8D1BFF35B8FEBE71E
:101AF0002C120020080D0020580800203012002071
:101B0000064B00200146BFF35B8F53E8000F43E80C
:101B10000012002AF9D1BFF35B8F70472C1200200E
:101B200038B5FFF7EDFF0546094C00E01034094BCE
:101B30009C420BD263685B79002BF7D023685B680B
:101B4000002BF3D0294620469847EFE738BD00BF69
:101B500014A0000034A00000034B18680028D4BF74
:101B600000200120704700BF2C12002010B5044C4B
:101B70000449204605F053FF034B1C6010BD00BF15
:101B800084070020F0A900002012002008B50023DF
:101B9000064A1370064A1360064A13604FF4004168
:101BA0000548FFF761FFFFF7E1FF08BD981A002025
:101BB0002C120020301200209580000008B501464C
:101BC000014806F081FA08BD8407002008B50248E4
:101BD00006F008F808BD00BF8407002008B50146DC
:101BE000024B186806F076FA08BD00BF20120020EC
:101BF00008B5024806F072FA08BD00BF840700204D
:101C000010B582B000220023CDE90023284B1878BC
:101C100008B902B010BD684606F078FA044688B1EB
:101C2000244BBFF35B8F53E8001F013943E80012D8
:101C3000002AF8D1BFF35B8F2046FFF711FE204644
:101C4000FFF7CCFFFFF788FF58B91B4A13685168AC
:101C500013F57A7341F1000113605160FFF7C8FF7B
:101C6000D7E708F06BF84A0142EAD06243011B1A39
:101C700062EB0102920042EA93729B001B1842EB56
:101C80000102D20042EA5372C3F3103343EA4243E3
:101C9000D20B0948016840685B1A62EB000240F20F
:101CA000E9318B4272F10002CFD3FFF739FFCCE765
:101CB000971A002030120020000D00200F4B1B78D7
:101CC00003B1704710B500210120FFF731FE0C4C25
:101CD00000E010340B4B9C4208D263685B79002B08
:101CE000F7D023689B6820469847F2E7FFF788FF04
:101CF0000028FBD1014B01221A7010BD981A002058
:101D000014A0000034A0000010B582B01A4BBFF33D
:101D10005B8F53E8002F511C43E800100028F8D1D6
:101D2000BFF35B8F154B1B7863B9154B1B68B3B1C1
:101D3000BAB1092A13D1134808F01BF8124803F06E
:101D4000FDFE0CE0EFF31184202383F31288BFF330
:101D50006F8FFFF755FF84F31188BFF36F8F02B0C9
:101D600010BD00220023CDE900234FF400420023E0
:101D7000044804F001FEF2E730120020981A002017
:101D800028120020080D00205808002010B5044635
:101D9000044B1B689847A0602146034806F0BAF937
:101DA00010BD00BFCC040020840700202DE9F041C5
:101DB00000210846FFF7BCFD804650B140F267663F
:101DC000002708F06BF8154B1858FFF7FDFD0025AC
:101DD00015E04FF0FF364FF0FF37F2E74046FFF7D0
:101DE00075FD804670B94FF0FF364FF0FF3709E0C0
:101DF0002C4632463B460A4803F0E2FE2546B8F13F
:101E0000000FEBD1FFF7FCFE04460028F6D1002DB1
:101E1000EED000210846FFF741FDEAE70800000088
:101E2000580800200248034BC01AC008704700BF82
:101E300014A00000BC9F000010B50C46FFF7F2FF95
:101E4000A04203D9024B53F8340010BD0020FCE738
:101E5000BC9F000008B5094BC31A1B110133D0F811
:101E600004C08CF8043043689A7143681960436871
:101E700001225A71FFF70AFE08BD00BF14A000003E
:101E800000B589B0059206930023079362B1074A13
:101E90000C9B02930B9B01930A9B009305ABFFF7EE
:101EA000A7F909B05DF804FB0022F1E725810000E5
:101EB0002DE9F04F8BB004AF05461E468846C1F3AE
:101EC0004A24002C00F0898091460022FA603A6191
:101ED0007A6104230293FB1801930A23009307F10C
:101EE0000C0321464846FFF783F9B0F5006F58D33D
:101EF000D9F804106D4600233B7302237B738AB02C
:101F000004AC14F1100217D012201AB1042801DD1C
:101F10003B4B636100233B7002237B70CAB10346D5
:101F2000082800DDA1610C2B02DD40F2FF73E361A4
:101F300004F1200300210AE06FF00040E5E701F121
:101F400018063E4416F8186C03F8016B013101299C
:101F5000F5D9112822DD122342B104213973002161
:101F60007973B9730121F973F868206100216FF367
:101F700000016FF341016FF382016FF3C50102208D
:101F800060F38811C3F30A0363F353210023C1F301
:101F900013011C4806F039F9AD462DE06FF01B0324
:101FA000DAE760F35328C0F30A0A0AEB1850173037
:101FB00020F007008008FFF701FE8346B0B104233C
:101FC0000293FB1801930A230093534600F1100279
:101FD00021464846FFF754FF08E004EB115417343C
:101FE00024F00704A008FFF7E9FD83463346424684
:101FF0002946584606F0ACF81C37BD46BDE8F08FC0
:1020000024AA0000DC9F00002DE9F04F85B0804637
:102010000D4617461E46DDF838B0DDF84090B9F1A0
:10202000000F41D0119B039300934B460F9A102150
:102030000020FEF783FEB0F5006F2DD282460BEB39
:102040000003173323F0070300246FF300046FF33A
:1020500041046FF3820468F3C50467F3881460F3E6
:1020600053246BF31F549808FFF7A8FD074650B19F
:102070001030B9F1000F06D0119B00934B460F9A18
:102080005146FEF75BFE334622462946384606F0A7
:102090005FF805B0BDE8F08F40F2FF73034A0221FC
:1020A000034806F0A7F8F4E70020C7E764AA000099
:1020B000DC9F0000406820B1034BC01A40F3CF0002
:1020C00070474FF0FF307047BC9F00000EB400B562
:1020D00082B0014603AB53F8042B0193034801F08F
:1020E0009FFA02B05DF804EB03B070474182000034
:1020F00010B584B011F0440F05D01A4B1B6833B9EA
:10210000002004B010BD1849FFF7E0FFF9E71749B8
:102110000968B2FBF1F2B2FBF3FC03FB1C224FF4A3
:102120007A7E0EFB02F2B2FBF3F403FB14210EFBEA
:1021300001F1B1FBF3F10E4AA2FB0C32D20A4FF4CB
:10214000616303FB12CC0B4BA3FB0CE35B09029115
:102150000194C3EB0311ACEB810100910649FFF739
:10216000B5FFCEE73C1200209CAA000038120020E8
:10217000C5B3A29189888888A8AA000061B108B572
:102180002AB1064A52F8232012B9054A00E0044A4F
:102190000449FFF79BFF08BD704700BF48AB000034
:1021A000C4AA0000CCAA00002DE9F041054617465C
:1021B000069EDDF81C8081B900242EB132461149FB
:1021C0002846FFF783FF0444B8F1000F14D06FB125
:1021D000099B042B13D00C4909E00C4B099A53F8C6
:1021E00022200B49FFF772FF0446E6E70649424604
:1021F0002846FFF76BFF04442046BDE8F0810549FF
:10220000F5E700BFE4AA0000D4AA00005CAB000020
:10221000DCAA0000D0AA00002DE9F04F87B00546E7
:102220000C46049205939DF84C7001F0020B01F0EE
:10223000010AC1F3C00801F4807905F071FF18B3F9
:10224000024616492846FFF741FF0646BBF1000F3C
:102250001CD13A465146284606F01DF8B9F1000F48
:1022600001D0002311930397129B0293119B0193BA
:10227000109B00930023049A41462846FFF794FFE1
:10228000304407B0BDE8F08F0026DFE7059A21460D
:102290002846FFF72DFF0644DBE700BFE8AA000051
:1022A00011F0100F0BD108B511F0200F03D0044925
:1022B000FFF70CFF08BD0349FFF708FFFAE7704777
:1022C00064AC000078B400002DE9F04105460F46EB
:1022D000164698460699FFF7E3FF0024444505DAC1
:1022E00024492846FFF7F2FE0134F7E7002409E00D
:1022F00020492846FFF7EAFE0BE01F492846FFF772
:10230000E5FE01340F2C0CDC002C02DD14F0070F6D
:10231000EED0B442F1D23A5D18492846FFF7D6FE16
:10232000EFE717492846FFF7D1FE002409E01149DD
:102330002846FFF7CBFE0BE012492846FFF7C6FE02
:1023400001340F2C13DC002C02DD14F0070FEED04B
:10235000B44207D23A5D0C4B9B5C13F0970FEBD164
:102360002E22E9E703492846FFF7B0FEE8E7BDE87B
:10237000F08100BFE0AA0000F4AA0000ECAA00006F
:10238000F8AA0000FCAA00009DB400002DE9F0416D
:1023900084B004469DF82C500C9F0E9E95B9012BDD
:1023A0001ED019484FF0000827B13B462246174976
:1023B00005F073F9C6B905BB204605F02AFF04B045
:1023C000BDE8F08103950A980290019300920B46B4
:1023D00000220F992046FFF71FFF80460C48E3E7D5
:1023E0000B484FF00008DFE70F9B0093434632464F
:1023F0000D99204605F067FFDDE72A460F99204634
:1024000005F055FFD8E700BF7982000021360000B3
:10241000418200002DE9F04383B00646056842F290
:102420000F738B4228BF0B46184A0521684604F0FB
:10243000D3FC04467368D3F804900B27DFF8508070
:1024400005E04A4639464046A8473F1A8044002FD7
:10245000F7D17368D3F804806F4605E04246214601
:102460003846A847241A0744002CF7D173685F68E0
:102470001B24084E05E03A4621463046A847241A58
:102480000644002CF7D103B0BDE8F0839CAD0000FA
:102490001CAB000000AB0000074B01221A6004E0F7
:1024A0004008054A13685B001360044B9842F7D854
:1024B000034B1860704700BF3812002040420F00E5
:1024C0003C120020034B01221A70034B034A1A608E
:1024D000704700BF991A0020681200206C1200207B
:1024E00008B5034B01221A70024805F03AFF08BDF7
:1024F0009A1A00209CAB0000014B19600020704725
:102500005412002008B518B9074B00221A7008BDF4
:10251000064B1B7823B141F2883007F020F9F6E72B
:10252000052005F035FFF2E7991A00209A1A0020DD
:1025300038B504460A4B01221A700A4B1B782BB996
:1025400038BD651E2046FFF7DDFF2C46002002F057
:102550002DFF0028F4D0024B1B78002BF1D1EFE7C0
:10256000991A00209A1A00202DE9F04107460E46DC
:102570004FF004080DE032463946002002F0AEFE6E
:10258000044616E04046FFF7D3FFF4B9134B1B781F
:10259000DBB1134B1B78002BEDD107F0D3F80546C8
:1025A00032463946002002F099FE0446284607F0DC
:1025B000D1F8002CE6D1094B1B78002BE5D008F1AF
:1025C000FF384046FFF79EFFDFE714B9034B1B7847
:1025D00003B934462046BDE8F08100BF991A0020B7
:1025E0009A1A002008B50248FFF714FF08BD00BF83
:1025F0009CAB000010B50C46044B1868FFF72EFA90
:1026000003460F2221460248984710BD541200206D
:102610009CAB000070B506460D46002405E0315D18
:10262000044883685B6898470134AC42F7D3284676
:1026300070BD00BF5C9F0000014B0360002070472D
:1026400000AC000008B5034805F084F8024805F026
:1026500081F808BD00AC000038AC000008B50248A5
:1026600004F012FA08BD00BF68AC0000B0F5680FB6
:1026700017D00CD840F6BA63984214D0B0F5683F32
:1026800013D03A2801D00120704700207047094B31
:1026900098420CD0084B984201D00120704700208E
:1026A00070470020704700207047002070470020CE
:1026B000704700BF3A00003A2C5F5CA9E8B108B54A
:1026C0004268B2F5683F07D00F498A421AD00068C5
:1026D00003F0DEF9002008BD03680022BFF35B8F22
:1026E00053E8001F012903D143E800200028F7D157
:1026F000BFF35B8F04D11046EDE76FF4E040704705
:102700000248E8E70248E6E72C5F5CA9E98FFFFF93
:10271000EA8FFFFF30B308B54268B2F5683F0CD0CE
:1027200012498A421CD000684FF0FF324FF0FF334D
:1027300003F02EF988B10E480FE003680122BFF3C1
:102740005B8F53E8001F002903D143E800200028D5
:10275000F7D1BFF35B8F01D1002008BD0448FCE72F
:102760000448FAE76FF4E040704700BF2C5F5CA9B3
:10277000E98FFFFFEA8FFFFF10B50446A8B1636839
:10278000B3F5683F10D0B3F5680F0DD00D4A9342F2
:102790000AD013F4686F0DD021680B4807F049F890
:1027A00000232360074B636010BD084B5B6808483B
:1027B0009847E4E7236800221A605A609A60DA605A
:1027C0001A61EFE72C5F5CA9AC1700209805002088
:1027D00070AC000010B5044668B36068B0F5683F9F
:1027E00028D0B0F5680F25D0174B984228D0FFF7B6
:1027F0003DFFC0B14FF0FF324FF0FF332146134889
:1028000003F094F808B923681BB9114B5B681148B1
:102810009847236800221A605A609A60DA601A6149
:102820004FF468636360206807F084F8636843F0DE
:102830003A03636010BD064B5B6807489847CCE7D6
:102840002368002BD3D1D5E72C5F5CA9AC170020FF
:102850009805002098AC000070AC000008B540233B
:1028600014220449044806F0D6FF0449044804F041
:102870007DF908BDAC120020AC170020C8AC0000E8
:10288000DCAC000038B50C46154605F0DAFD034B0C
:1028900043F8305003EBC0035C6038BDFC050020FA
:1028A0002DE9F04182B000AF0446D0F800E0D0F846
:1028B00004C085686E468AB06B4613F1100200F0C2
:1028C000888014218AB10846042903DDDFF81C81C1
:1028D000C3F81480082801DDC3F818E00C2801DDD6
:1028E000C3F81CC0102800DD1D62132974DD1425F7
:1028F0003AB10521397100217971B971F97178689E
:10290000186100216FF300016FF341016FF3820141
:102910006FF3C501012363F38811C5F30A0565F35D
:1029200053216FF31F5100233148FFF7C1FAB54619
:10293000D4F80CC026696569E8468AB06B4613F185
:1029400010024CD0142182B10846042903DDDFF8BF
:10295000A4E0C3F814E0082801DDC3F818C00C286F
:1029600000DDDE61102800DD1D6213293ADD14252B
:102970003AB10521397100217971B971F97178681D
:10298000186100216FF300016FF341016FF38201C1
:102990006FF3C501012666F38811C5F30A0565F3D7
:1029A00053216FF31F51124D00232846FFF780FA81
:1029B000C546E369104A3146284605F01BFCA36969
:1029C0000E4A3146284605F015FC0837BD46BDE8DD
:1029D000F0816FF0004175E76FF01B0588E76FF03D
:1029E0000041B0E76FF01B05C2E700BFECAC000090
:1029F000FC9F00001CAD00004CAD00005CAD000071
:102A000038B504460D4611B10846FFF749FF012CC1
:102A100004D02946204602F025FD38BDEFF305839A
:102A2000103B034A0121034805F0E4FBF1E700BF36
:102A30008CAD0000FC9F000030BFFFF7FDBF00BF62
:102A400038B50446054D2A46054907F0A5F9054A5B
:102A50000021601907F0AEF938BD00BF000000008A
:102A600034A000000400000070B50646054D064B7A
:102A70001D444C1B2046FFF7E3FF083C346705F17B
:102A8000080070BD0000000004000000074B9B68B8
:102A900093F90E20002A08DB044A5269934204D0BD
:102AA000034A536843F080535360704788180020EE
:102AB00000ED00E081690D4B5A6942F480725A6161
:102AC000BFF34F8FBFF36F8F31F8021C5A6922F4A6
:102AD00080725A61BFF34F8FBFF36F8F4DF6027351
:102AE000994201D0002070470120704700ED00E0BE
:102AF0004FF0000C83F800C002F07F4CBCF17F4F18
:102B000014D102F00C0CBCF1080F04D012F0080F25
:102B100009D00846704708B5054A0121054805F067
:102B20005FFB002008BD01221A707047002070472B
:102B3000A0AD0000FC9F000008B52B4A01212B48E6
:102B400005F04EFB2A4B9B6A13F0007F21D11D201C
:102B5000274B9B6A13F0807F22D1254B9B6A13F48D
:102B6000002F24D1224B9B6A13F4802F26D1204BB7
:102B70009B6A13F4003F28D11D4B9B6A13F4803FDE
:102B80002AD11B4A936A6FEA03436FEA13439362A5
:102B900008BD184A0121154805F022FB1E20D7E781
:102BA000154A0121114805F01BFB1F20D5E7134AE8
:102BB00001210E4805F014FB2120D3E7104A012122
:102BC0000A4805F00DFB2220D1E70E4A01210748F3
:102BD00005F006FB2320CFE70B4A0121034805F04F
:102BE000FFFA2420CDE700BFCCAD0000FC9F000021
:102BF00000ED00E0E4AD0000F8AD000014AE000010
:102C000034AE00005CAE000078AE000008B50023D2
:102C10000B70034A0121034805F0E2FA08BD00BF2A
:102C2000A4AE0000FC9F000090B583B000AF0F2958
:102C300023DC2F4C103900233B7102237B718AB0B7
:102C4000EC461CF110021AD0122022B1042802DD39
:102C5000284BCCF8143000233B7002237B70E2B188
:102C60000346082801DDCCF818400C2B01DDCCF818
:102C70001C100CF1200300210DE01F4CDAE76FF06F
:102C80000040E2E701F1080404EB070E1EF808EC2F
:102C900003F801EB01310129F4D9112824DD1223B5
:102CA0004AB10421397100217971B9710121F97199
:102CB0007868CCF8100000216FF300016FF3410138
:102CC0006FF382016FF3C501012060F38811C3F334
:102CD0000A0363F353216FF31F5100230748FFF7E3
:102CE000E7F80C37BD4690BD6FF01B03D8E700BF77
:102CF000C8AE0000FCAE0000E0AE0000FC9F00008B
:102D0000F8B505460F461446374A0121374805F005
:102D100067FA374B9B6A13F4805F25D11626344B34
:102D20009B6A13F4006F26D1314B9B6A13F4007F2A
:102D300028D12F4B9B6A13F4806F3FD12C4B9B6A99
:102D400013F4807F41D12A4B9B6A13F4005F43D177
:102D5000274A936A43F47F4393620121284605F092
:102D60007DFB20703046F8BD224A01211F4805F046
:102D700037FA1726D3E7204A01211C4805F030FA1C
:102D80001826D1E71D4A0121184805F029FA184AEA
:102D9000936B926A12F4004F01D11926C9E7184AC1
:102DA0000121124805F026FA37B1114A936A23F43B
:102DB000004393621926BCE71926BAE7114A01219C
:102DC0000A4805F00DFA1A26B8E70F4A012107480C
:102DD00005F006FA1B26BBE70C4A0121034805F063
:102DE000FFF91C26B4E700BF10AF0000FC9F0000F5
:102DF00000ED00E028AF00003CAF000050AF000045
:102E00006CAF000084AF0000A0AF0000B8AF0000BE
:102E10002DE9F04104460F461546464A0121464831
:102E200005F0DEF9454B9B6A13F0100F3CD11026DC
:102E3000424B9B6A13F0080F3DD1404B9B6A13F045
:102E4000020F3FD16FF015083C4B9B6A13F0010F46
:102E500058D13A4B9B6A13F0200F5AD1374B9B6ADB
:102E600013F0100F04D1354B9B6A13F0020F04D0FE
:102E7000324B5B6813F4006F52D1304B9B6A13F0F6
:102E8000200F04D02D4A536A23F4005353622B4A77
:102E9000936A43F0FF0393620121204605F0DEFAB6
:102EA00028703046BDE8F081254A0121224805F00E
:102EB00097F91126BCE7234A01211F4805F090F934
:102EC0001226BAE7204A01211B4805F089F91B4B5D
:102ED000D3F834809B6A13F0800F03D16FF015088C
:102EE0001326B1E74346194A0121134805F082F938
:102EF00037B1124A936A23F0800393621326A3E743
:102F00001326A1E7124A01210B4805F069F914269E
:102F10009FE7104A0121084805F062F915269DE750
:102F20002146404600F00CFA0028A6D080F309881C
:102F30000226A2E7E8AF0000FC9F000000ED00E0E1
:102F400000B000003CAF000034B000004CB0000006
:102F500064B00000B8AF000070B506460D462B4ABD
:102F600001212B4805F03CF900232B70294BDC6A2A
:102F700014F002040AD1274BDB6A002B0DDB254B32
:102F8000DC6A14F080440ED1204670BD224A012133
:102F90001F4805F025F90024F6E7204A01211C48C6
:102FA00005F01EF9F0E71E4A0121194805F018F94D
:102FB0003046FFF77FFD98B9164B9B6A13F0FF0F61
:102FC00016D1144B9C6A14F47F4418D1114B9B6AA0
:102FD000B3F5803FD8D33046FFF7AEFD0446D3E7C4
:102FE0003368104A01210A4805F004F93468CBE738
:102FF0002A4601213046FFF70BFF0446C4E72A4664
:1030000001213046FFF77CFE0446BDE784B0000096
:10301000FC9F000000ED00E09CB00000C0B000008C
:10302000D0B00000F0B0000030B58BB01F4B5D6831
:10303000C5F30805002383F31188BFF36F8F0DF1EB
:103040002603FFF755FD04460DF12702294605F03A
:1030500007FA9DF827300BB10BB030BD05460DF1D6
:10306000040C20686168A268E368ACE80F0020697E
:103070006169A269E369ACE80F009DF826304BB1A5
:10308000089BC3F308025AB96FEA53236FEA43233C
:10309000089305E0089B23F4FF7323F001030893D2
:1030A00001A92846FFF7ACFCD6E700BF00ED00E021
:1030B000044B5A6942F010025A615A6922F0080220
:1030C0005A61704700ED00E0EFF30880EFF30981EB
:1030D00001B57246FFF7A8FF01BD00BF002080F3D5
:1030E0001488BFF36F8F0F4880F3088801F01CFB32
:1030F00000200D490860BFF34F8F00F02DF820200D
:1031000080F3118809484FF40461401880F309885E
:10311000EFF314800221084380F31488BFF36F8F0C
:1031200000F0D2F8C02F002094ED00E0001E002037
:10313000084BD3F89000C0F30720002306E0054AAF
:10314000C2F898300021C2F8A01001338342F6DBA8
:10315000704700BF00ED00E010B572B6002484F3A4
:103160001388FFF7E5FF234608E003F120010E4A2C
:103170004FF0FF3042F821000133DBB2072BF4D9C6
:10318000002308E003F16001074A4FF0FF3042F8E6
:1031900021000133DBB2072BF4D962B6BFF34F8FA6
:1031A000BFF36F8F10BD00BF00E100E008B50A4B10
:1031B0009B68834202D003F0E7F808BDEFF3058374
:1031C000002BF8D0054B5A6842F080525A605A6A78
:1031D00022F400425A62EEE78818002000ED00E079
:1031E00015498A684FF030001044EFF3098C80E8ED
:1031F000F01F202080F31288BFF36F8F0F4F4FF026
:1032000000664A698A603E604FF0700414192068B5
:103210000B4C2060506F0023536780F3118804B576
:10322000104600F009F9BDE8044002F1300090E8D2
:10323000F01F8CF3098870478818002004ED00E027
:10324000C81700201EF0040F0CBFEFF30880EFF347
:103250000980816911F8021C0229FFD001B572466C
:1032600005F0F0F801BD00BF002807DB00F01F02E9
:10327000400901239340024A42F82030704700BFC2
:1032800000E100E0002808DB4901C9B200F160401C
:1032900000F5614080F80013704700F00F0049010D
:1032A000C9B2014B1954704714ED00E04209054BB7
:1032B00053F8222000F01F00012303FA00F0104011
:1032C000704700BF00E100E008B50B4B0B4A22F04D
:1032D0007F029A60BFF34F8FBFF36F8FD3F88820C0
:1032E00022F47002C3F8882002F068FA03F086F92D
:1032F00000F06AF802F0C0FA00ED00E00000000003
:1033000010B4A2F120040D4942F8081C21F001017B
:1033100042F8081C42F8203C019B42F81C3C029BEE
:1033200042F8183C039B42F8143C4FF0807342F87B
:10333000043C04650023436710BC7047C1160000BD
:103340000E4B9B68A3B110F1160F0AD01A6EA2F1B2
:10335000400C84450ED882420ED98A4206D80020FD
:1033600070471A6E8A4201D800207047186E704765
:103370000020704700207047002070478818002008
:1033800008B50E461546094A9060026F084B1A6050
:1033900000F052F82C4686F309880020054B984728
:1033A0002046002100220023034C204788180020DB
:1033B000C8170020E9840000C1160000014B10224C
:1033C0001A61704700ED00E0002206E003F00F03F1
:1033D0000949194420230B7601322F2A0ADC53B203
:1033E000002BF3DB03F1604303F56143202183F8F5
:1033F0000013F1E7704700BFFCEC00E008B5EFF305
:103400000583103B044A02EBC301496852F83300BC
:103410008847FFF73BFB08BDFC05002008B5034BC0
:10342000034A0121034805F08AF908BD0000042081
:10343000000000200CB1000008B5036E403B0548B9
:10344000036040234360044B8360012105F07BF956
:1034500008BD00BFCC17002000000B15084AC2F8B9
:1034600098000B6823F01F03034343F01003C2F8D6
:103470009C308B6843F00103C2F8A030704700BF56
:1034800000ED00E010B504460A4BD3F89030C3F3CA
:103490000723013B984203D8FFF7E0FF204610BD09
:1034A0000346054A0121054804F0A4FE6FF015000B
:1034B000F5E700BF00ED00E01CB10000F49F000044
:1034C0002DE9F04780460F469A461646002409E04B
:1034D0002946F0B205F03CF8064610F1160F1AD056
:1034E00001360134BC4216DA04EB440508EB8505CD
:1034F0006A68002AF5D0BAF1000FE9D0284605F035
:1035000016F80028E4D12346044A0121044804F0B7
:1035100071FE6FF015063046BDE8F08744B100003B
:10352000F49F000010B5034C01232278FFF7C8FF79
:10353000207010BD9B1A002008B500230B4A12789A
:10354000FFF7BEFF10F1160F0FD0024606E0084B42
:10355000C3F898200021C3F8A0100132044BD3F81F
:103560009030C3F307239342F1DC08BD9B1A00207F
:1035700000ED00E0044B0522C3F89420BFF34F8F09
:10358000BFF36F8F704700BF00ED00E0BFF35F8FA8
:10359000024B0022C3F89420704700BF00ED00E00A
:1035A00038B51C4B1D681C4BD3F89030C3F3072370
:1035B0009D422BD8FFF7EAFF002409E0154B5B681A
:1035C00004EB440103EB81012046FFF747FF013480
:1035D000A542F3D81148057004F0D9FF10F1160F79
:1035E00013D00E4B1A780C4BD3F89030C3F307234B
:1035F0009A4207DA084BC3F898200021C3F8A010BC
:103600000132F0E7FFF7B6FF002038BD4FF0FF3082
:10361000FBE700BF68B1000000ED00E09B1A00204E
:1036200030B587B00D4611460024009401940294F1
:1036300003940494059402228DF80220044A019216
:10364000049005951A46684603F0F2FB07B030BDBA
:103650004F87000008B5024B1B689847002008BD43
:10366000D8170020034B1860034A937843F00203F5
:1036700093707047D8170020F804002008B5064959
:1036800021F00701C1F1005202F58022034803F046
:103690004DFF002008BD00BF07300020DC170020D0
:1036A0000123044AC2F840354FF08042C2F8783511
:1036B0000020704700E0014030B108B5034B8001A5
:1036C00043F00103984708BD704700BF50A00000B9
:1036D000004870473C180020034BC01A8010034B71
:1036E00003FB00F0704700BFFC170020B76DDBB68E
:1036F00038B505460C46FFF7EFFF01464022034868
:1037000005F0C0F801462846A04738BD209F0000BC
:1037100030B583B005460C46FFF7DEFF0146402377
:1037200000932346054A064805F0C6F8011E01DB52
:1037300003B030BD2846A047FAE700BF018900006A
:10374000209F000008B510B101280DD008BD002150
:10375000084805F023F8836813F0070FF6D100211D
:10376000044805F07DF8F1E70121024805F078F8FA
:10377000ECE700BF209F000010B582B0EFF311848A
:10378000202383F31288BFF36F8F154A136843F029
:103790000201116013F0010F09D1002384F3118895
:1037A000BFF36F8FB3B905F0B3F802B010BD0DF1E0
:1037B000070201214FF0804004F0D4FF9DF807304C
:1037C000012B01D00023E9E7FFF782FF05F036F86F
:1037D0000123E3E70021034805F042F8E5E700BFD5
:1037E0004C180020209F000010B5EFF31184202317
:1037F00083F31288BFF36F8F074A136823F0020127
:10380000116013F0010F04D084F31188BFF36F8FA0
:1038100010BD05F087F8F7E74C18002070B582B0AE
:103820000546012807D14FF08043D3F81C3403F03C
:103830000303012B4BD006F0B6F8044618B9284B09
:103840001B78002B38D1EFF31186202383F31288E5
:10385000BFF36F8F012424B94FF080430222C3F8D5
:10386000082301AA00214FF0804004F07BFF20B123
:10387000019B012B26D0012D24D0FCB1304604F051
:1038800047FE4FF08043D3F81835002BE9D14FF0B5
:103890008043D3F80431002BE3D04FF08043002263
:1038A000C3F80421D3F804210122C3F818250D49D7
:1038B000C1F880219A60D4E70026CCE7012005F00A
:1038C0003BF8DEE72CB186F31188BFF36F8F02B0AF
:1038D00070BD4FF080430222C3F80423F7E700BF16
:1038E0009F1A002000E100E000B585B0CDF800D0BF
:1038F000CDF804D000230293012303936B46074ABB
:1039000004F0F6FF002805DB4FF4804200236846F0
:1039100002F056F905B05DF804FB00BF65890000B0
:1039200070B5064600220121104604F0C3FD11487F
:1039300001F04EF8104B984219D101F05DF80024C7
:10394000012C12D82146304604F028FF05462146B6
:10395000304604F030FF094904F0E7FA002805DB9F
:103960000123AB601C44E4B2EAE7002070BD6FF0B5
:103970000400FBE7453700000000AD0B9CB10000E0
:1039800010B50446104B0121BFF35B8F53E8002FA5
:1039900043E800100028F9D1BFF35B8F1AB1631E12
:1039A000012B0DD910BD094804F005FF084900237B
:1039B0004B608B60CB6001238B6004F0D3FAEEE7A1
:1039C0002046FFF72BFFEDE7F8170020209F0000AF
:1039D000E817002010B504460A2806D0E1B20648D0
:1039E00083685B689847204610BD034883685B681E
:1039F0000D219847F2E700BF5C9F000010B5044C12
:103A00002046FFF72FFE2046FDF754FE10BD00BFF5
:103A1000D539000008B5054805F0A7FE18B1FFF735
:103A2000EDFF002008BD6FF01200FBE75C9F000077
:103A3000F0B51C46059F069E00F01F0C400936D0CD
:103A4000012837D1284D0CF5E07355F8233099B390
:103A500001209AB34FF0020E40EA0E008CB34FF0F3
:103A60000C0E40EA0E007FB34FF4E06E40EA0E0009
:103A70006EB34FF4403E40EA0E0023EA000049B323
:103A80000B784AB31278520013433CB32278920069
:103A900013432FB33A78120213431EB33278120441
:103AA000134303430CF5E07C45F82C30F0BD4FF098
:103AB000A045C8E70025C6E70020CAE74FF0000E82
:103AC000CAE74FF0000ECCE74FF0000ECEE74FF004
:103AD000000ED0E70023D4E70022D5E70022D7E785
:103AE0000022D9E70022DBE70003005000F01F03AB
:103AF000400909D001280AD1064A03F5E07352F8BB
:103B0000230000F0010070474FF0A042F5E70022CB
:103B1000F3E700BF0003005028B1012801D103489A
:103B20007047002070470248704700BF349F000074
:103B3000489F00002DE9F04786B088461546994613
:103B4000446801F01F07237B47EA4317204604F02F
:103B500070FF002853D0B5F5001F2AD00DF10C0AD4
:103B60000026039604964946284604F0D7FF8DF8B0
:103B70000C00009601960296CDF804A0A36823FAE3
:103B800008F313F0010F02D1B5F1A07F18D0103463
:103B90006A463946204605F0A0FD1C4B984231D1BB
:103BA00001223946204605F0BCFD002006B0BDE8E4
:103BB000F087394604F1100005F0B7FD0020F5E765
:103BC0003846FFF793FF0028E1D104F110050DF10D
:103BD00017023946284605F08CFD0D4B984203D05C
:103BE0000DF117030493D2E70DF11701284605F0F4
:103BF00094FD064B9842F3D06FF00B00D6E76FF0C0
:103C00008500D3E76FF01500D0E700BF0000AD0BD3
:103C10000400AD0B2DE9F04389B0074689461446F0
:103C2000456801F01F082B7B48EA4318104604F052
:103C300005FF8DF81E0040F206332340B3F5837F65
:103C40005ED016D8062B57D006D9B3F5807F0DD19C
:103C500001238DF81D3024E003B3022B03D104238C
:103C60008DF81D301DE06FF015076FE06FF0150740
:103C70006CE040F20222934246D0B3F5407F03D17C
:103C800003238DF81D300CE0B3F5007F03D1022330
:103C90008DF81D3005E06FF0150757E000238DF813
:103CA0001D30012606FA09F63146384604F0D4FEE6
:103CB000071E4BDB14F4002F2AD06B68C3F808658D
:103CC000284604F0B6FE50B310350DF11F024146F0
:103CD000284605F00EFD064614F4403F3AD1414611
:103CE000284605F012FD3A4B9E422FD19DF81F1039
:103CF000284605F00EFD29E006238DF81D30D0E79B
:103D000007238DF81D30CCE705238DF81D30C8E75B
:103D100014F4802FD4D06B68C3F80C65D0E7C4F3DB
:103D200040438DF8083014F4803F0CBF012300237A
:103D30008DF81030002301930DF11D0300930DF158
:103D40001E0304AA02A94046FFF772FE384609B0D6
:103D5000BDE8F08302AA0023029303930493059322
:103D60000693059204AA4146284605F0B6FC184B76
:103D7000984202D06FF01507E8E714F4003F1AD01C
:103D80009DF81D308DF8103014F4803F0CBF0123D6
:103D900000238DF811309DF81E308DF8123000236D
:103DA00004AA4146284605F09CFC094B98429AD04B
:103DB0006FF01507CAE700230493059306930DF1EE
:103DC0001E03049304AA4146284605F086FCECE74E
:103DD0000000AD0B10B54468204604F02AFE08B977
:103DE000002010BD1034204605F08BFC08B10020E7
:103DF000F7E70021204605F080FC094B98420BD1E3
:103E000000220849204605F070FC0022052106200A
:103E100004F050FB0020E4E76FF00400E1E700BF8E
:103E20000000AD0B558B000070B400F01F0C400972
:103E300019D001281AD10E4D0CF5E07055F820600C
:103E40000C4C344041EA420141EA83039DF80C20C6
:103E500043EA02239DF8102043EA0243234345F836
:103E6000203070BC70474FF0A045E5E70025E3E740
:103E700000030050F0F8FCFF00F01F01400907D0DC
:103E8000012808D1054A01238B40C2F80835704744
:103E90004FF0A042F7E70022F5E700BF0003005013
:103EA00000F01F01400907D0012808D1054A01236D
:103EB0008B40C2F80C3570474FF0A042F7E7002264
:103EC000F5E700BF000300502DE9F04F85B08046B4
:103ED0008B460392002423E04FF0FF3638E0039B2B
:103EE000C3F80C65012702973946B6F1FF3F15D09C
:103EF000B1F1FF3F40F0E48058F80A3013F4004F6E
:103F000040F0E280029D00220192CDF80090C3F3C0
:103F100041233A4629463046FFF786FF0134E4B292
:103F20005C4580F0D3804FEA840A58F82430C3F30C
:103F3000C725C3F3C322C3F3080615F0080540F0F4
:103F4000C780674911F8029040F2FF129642C3D031
:103F50001B0E192B00F2BF8001A252F823F000BF04
:103F6000DF3E0000C93F0000D93F0000E73F0000EE
:103F7000F73F00000740000015400000D740000058
:103F8000D7400000D7400000D74000002540000087
:103F90003B400000D7400000D7400000D740000061
:103FA000D7400000D7400000D7400000D7400000B5
:103FB000D7400000D740000051400000654000009D
:103FC000794000008D400000039BC3F814652F4624
:103FD00002954FF0FF3188E7039BC3F8086501277E
:103FE0000297394681E7039BC3F810652F46029577
:103FF0004FF0FF3179E7039BC3F808652F46012393
:104000000293002171E7039BC3F80C650127029717
:1040100000216AE7039BC3F810652F4602954FF015
:10402000FF3162E7039BC3F80865B9F1000F37D091
:104030002F4602954FF0FF3157E7039BC3F80C65FD
:10404000B9F1000F34D02F4602954FF0FF314CE705
:10405000039BC3F8606558F80A10C1F300410127BB
:10406000029742E7039BC3F8646558F80A10C1F34E
:1040700000410127029738E7039BC3F8686558F8A9
:104080000A10C1F30041012702972EE7039BC3F8F2
:104090006C6558F80A10C1F300410127029724E724
:1040A0004F46CDF808904FF0FF314FF006091CE75E
:1040B0004F46CDF808904FF0FF314FF0060914E756
:1040C000304604F06FFD17E701271CE7002004E0ED
:1040D0006FF0150001E06FF0850005B0BDE8F08FCE
:1040E00040B20000F8B505460E46476805F05BFC97
:1040F00020B9154B1B7843B1002300E0012353B9CD
:10410000284604F0FBFD044611E00123F7E784F3A1
:104110001188BFF36F8FEFF31184202383F312888C
:10412000BFF36F8F284604F087FD0028EFD0BB69EE
:104130001E700122B969284604F0A5FD84F3118898
:10414000BFF36F8FF8BD00BF9F1A002038B505463A
:104150000C4601F1080004F097FF0C4B98420DD17A
:1041600005F10C0205F59071207A00F0E5FB237A49
:104170000120984000F0DAFB002038BD044A0121FC
:10418000044804F02DF86FF00400F6E70000AD0BD2
:1041900048B200000CA0000010B50446436819683E
:1041A0001A69C1F824255A7D93F816C01B7D42EA8E
:1041B0000C021343C1F86C3504F0EAFD00B110BDE8
:1041C0000249204604F0F6FCF9E700BF7D8D0000AF
:1041D00021F07F4100F5A870014B43F82010704793
:1041E000001001404FF480338340024AC2F8443348
:1041F000704700BF001001404FF480338340024AF3
:10420000C2F84833704700BF00100140014BD3F89B
:1042100004057047001001402DE9F8430546894622
:104220009046FFF7E9FF284604F058FE4E46032764
:1042300010E0FFF7EBFF0446494604F03EFEB0F500
:10424000000F26D9284604F049FEB8F1000F22D10C
:104250003E19013731462846FFF7BAFF2846FFF7D7
:10426000C1FFFFF7D3FF0446C11C304604F025FE12
:104270000A4B98420AD9284604F023FE0028D8D1D8
:10428000B8F1000FE4D06FF0150000E00020BDE8A9
:10429000F8830020FBE76FF01500F8E7FDFF7F00D3
:1042A000034B044AC3F80823C3F84823704700BFF0
:1042B0000010014003000F0010B5012383406FEA96
:1042C000030C0E4ABFF35B8F52E8001F01EA0C0E8D
:1042D00042E800E4002CF7D1BFF35B8F4FF480324B
:1042E00082400748C0F80823BFF35F8FBFF36F8F8A
:1042F0000B4214BF0120002010BD00BF7818002021
:10430000001001404FF480338340144AD2F8042354
:10431000134201D10020704710B5044601238340A9
:10432000DB430F49BFF35B8F51E8002F02EA030024
:1043300041E8000CBCF1000FF6D1BFF35B8F22FA0D
:1043400004F313F0010F03D1204604F0BAFD18B1B5
:10435000204604F0C3FD012010BD00BF0010014045
:104360007418002001B9704701238340114ABFF33C
:104370005B8F52E800CF4CEA030C42E800C10029F1
:10438000F7D1BFF35B8F4FF4803383400A4AC2F802
:104390000433BFF35B8F094B1B68BFF35B8FC340D4
:1043A00013F0010FDFD0064B4FF40032C3F80021A9
:1043B000D9E700BF781800200010014074180020D1
:1043C00000E100E038B514461046194604F092FDAD
:1043D00002460D490B68E01A1B184C6844F10004B2
:1043E0000B604C60A2F50013B3F5400F09D2074BE8
:1043F0001B68190A1B06D41841F10005044BC3E9D8
:10440000004502F0BDF938BD500D00207C18002099
:10441000580D002038B50D4B1C68250A2406BFF343
:104420005F8FFFF7F3FE0346001945F10001B3F576
:10443000801F0AD2064BD3E90023904271EB03039D
:1044400003D210F1807041F1000138BD7C180020CA
:10445000580D00202DE9F041064614461D469DF8F2
:1044600020801046194604F045FD0746FFF7D2FFAD
:10447000A04271EB050319D2201A65EB01011D4B17
:10448000984271F100012FD21B4B03EB0613D3E9C5
:104490000223AB4208BFA24201D1002018E04246ED
:1044A00039463046FFF7B8FE90B11BE0B8F1000F77
:1044B0001DD10123B340114ABFF35B8F52E8000FB7
:1044C000184342E800010029F8D1BFF35B8F0020B8
:1044D000094B320103EB0616C6E9024506999950CD
:1044E000079B7360BDE8F0816FF01500FAE76FF08D
:1044F0001500F7E701008000400D0020741800202F
:1045000030B585B0FFF7CCFE00231E4AC2F808354F
:10451000002B25DD1B4C0225C4F804531A4B4FF425
:104520000032C3F8802100220121112003F0C2FFD4
:10453000112003F0BAFF0123A3602360134A136024
:10454000002402940194124B0093124A0023204647
:1045500004F0E0FC2846FFF713FA204605B030BD12
:104560000D4A02EB03124FF0FF304FF0FF31C2E96A
:1045700002014FF480329A400249C1F8042301330A
:10458000C6E700BF0010014000E100E078180020FD
:10459000C5430000FFFF7F00400D00202DE9F047DC
:1045A00082B00446FFF7AEFE10B902B0BDE8F08756
:1045B000FFF730FF82460D4604F09FFC0646154B80
:1045C00003EB0413D3E90289C24575EB09050BD24D
:1045D0000025304604F099FC002DE6D000974246B5
:1045E0004B462046A847E0E70A4A230102EB0411A4
:1045F000D5584F680020D0504FF0FF324FF0FF33B6
:10460000C1E902232046FFF7F7FD204604F066FCCF
:10461000DFE700BF400D002010B50D4BD3F8043389
:1046200013F0020F03D10024002C0BDD10BD02217A
:10463000074804F00CFC0028F5D0064A1368013343
:104640001360F0E72046FFF7A9FF0134ECE700BF55
:10465000001001407C18002010B584B0B0F1FF3F7D
:1046600018D001281BDD154B9842A8BF18460446F8
:10467000134B01221A70FFF7CDFE124B1A685B68CC
:10468000801AB0F5000F0CD20444B4F5000F09D322
:104690000A4C07E00A4B00221A70084CEBE7012491
:1046A000E6E7064C0020121902900190064900919D
:1046B00043F1000304F02EFC04B010BDFFFF7F00A7
:1046C0009E1A0020500D0020C543000008B5FFF7DA
:1046D000A1FE024B1B68C01A08BD00BF500D002090
:1046E000BFF34F8F0549CA6802F4E062044B1343DD
:1046F000CB60BFF34F8F00BFFDE700BF00ED00E0D0
:104700000400FA05024BD3F80034002BFAD07047AE
:1047100000E0014008B5034BC3F80405FFF7F2FFC2
:1047200008BD00BF00E0014038B504F01FFC40B1F7
:104730004FF080430022C3F80C21C3F81021C3F8C6
:10474000382504F01DFC002846D04FF08052D2F8E6
:1047500004144E4BC3F82015D2F80814C3F82415DE
:10476000D2F80C14C3F82815D2F81014C3F82C157D
:10477000D2F81414C3F83015D2F81814C3F834154D
:10478000D2F81C14C3F84015D2F82014C3F844150D
:10479000D2F82414C3F84815D2F82814C3F84C15DD
:1047A000D2F82C14C3F85015D2F83014C3F85415AD
:1047B000D2F83414C3F86015D2F83814C3F864156D
:1047C000D2F83C14C3F86815D2F84014C3F86C153D
:1047D000D2F84424C3F8702504F0DCFB18B12C4B4C
:1047E0002C4AC3F88C2604F0E8FB18B12A4BFB22B4
:1047F000C3F8182504F0F4FB70B14FF08041D1F8F4
:10480000E43E23F00F034FF08052D2F8582202F01A
:104810000F021343C1F8E43E04F0F5FB20B11F4B37
:104820004FF40072C3F8402604F000FC60B14FF072
:104830008043D3F8003413F0010F05D04FF08043CC
:104840006FF00102C3F8002404F00AFC4FF01023BB
:10485000D3F80032002B06DB4FF01023D3F80432DC
:10486000002B00DB38BD0120FFF754FF4FF0102470
:104870001225C4F80052FFF745FFC4F80452FFF7B1
:1048800041FF0020FFF746FFFFF72AFF00C000406E
:10489000005000404881030000F0004000900240BA
:1048A00010B50468CCB1B4FA84F3C3F11F03DBB2D2
:1048B00001229A4024EA0202BFF35B8F50E800CF46
:1048C000A44504D140E8002EBEF1000FF6D1BFF39D
:1048D0005B8FE6D10B70024810BD0248FCE700BFB9
:1048E0000000AD0B0200AD0B0368CB4013F0010FCD
:1048F00015D100B5026801238B401343BFF35B8FD2
:1049000050E800CF944504D140E8003EBEF1000FCE
:10491000F6D1BFF35B8FEDD102485DF804FB02488E
:10492000704700BF0000AD0B0400AD0B014BC3F896
:104930000405704700F00140034BA23043F83010EB
:1049400003EBC0035A60704700F0014070B582B0BD
:104950000646C0B1012832D104224FF480730121F0
:104960004FF08040C0F80813024401211160034455
:1049700000221A601B688DF807108E4208D00025AF
:1049800042F210740CE00C224FF482730221E7E72C
:104990000DF10705F4E7012004F072FB013C0CD097
:1049A0002A4631464FF0804004F072FB28B1002DBA
:1049B000F1D09DF80730012BEDD0012E01D002B0CF
:1049C00070BD024B00225A71F9E700BF8018002029
:1049D000064B1B793BB9054B186001221A71002266
:1049E0005A71034870470348704700BF8018002081
:1049F0000000AD0B0C00AD0B08B5064B1B680BB1EE
:104A000004F064FB04F060FB4FF08043C3F818052A
:104A100008BD00BF8018002000B583B020B1012878
:104A200049D003B05DF804FB4FF08043D3F818245D
:104A3000D3F8183403F00303019312F4803F13D129
:104A40004FF08043D3F8143413F0010F10D104F069
:104A50003BFB0190019A4FF08043C3F818250822D0
:104A60004FF4827302202AE001A804F038FBF1E73A
:104A70004FF08043D3F81C3403F00303019301A8E3
:104A800004F02DFB0028E5D0194B1B682BB14FF02B
:104A900080430222C3F80423C3E74FF08043D3F8D6
:104AA0000431002BF9D04FF080430022C3F80421D9
:104AB000D3F80431B5E700224FF48073012003F1ED
:104AC000804300211960196802F1804201211160C0
:104AD000074A126822B14FF08043C3F80403A0E7ED
:104AE0001A68002AFCD000221A601B6899E700BFF0
:104AF0008018002010B54FF08043D3F8044308E03D
:104B00001D4B5B792BB91C4B01225A711A4B1B6848
:104B1000984784B3B4FA84F0C0F11F0001228240A8
:104B200083009BB203F580739BB2C0B292B224EAB9
:104B3000020403F1804319680029EAD000211960BA
:104B40001B684FF08043C3F80823012AD8D0022AFB
:104B5000DCD14FF08043D3F81814D3F8183413F095
:104B6000030FD3D14FF080430121C3F81815C3F8C8
:104B700004239960CDE710BD8018002070B400F0C8
:104B80001F0C400919D001281AD10E4D0CF5E07008
:104B900055F820600C4C344041EA420141EA83035D
:104BA0009DF80C2043EA02239DF8102043EA0243BB
:104BB000234345F8203070BC70474FF0A045E5E72F
:104BC0000025E3E700030050F0F8FCFFF0B51C46B9
:104BD000059F069E00F01F0C400936D0012837D1F2
:104BE000284D0CF5E07355F8233099B301209AB3A2
:104BF0004FF0020E40EA0E008CB34FF00C0E40EA6C
:104C00000E007FB34FF4E06E40EA0E006EB34FF437
:104C1000403E40EA0E0023EA000049B30B784AB355
:104C20001278520013433CB32278920013432FB3FF
:104C30003A78120213431EB332781204134303432B
:104C40000CF5E07C45F82C30F0BD4FF0A045C8E7EE
:104C50000025C6E70020CAE74FF0000ECAE74FF074
:104C6000000ECCE74FF0000ECEE74FF0000ED0E77D
:104C70000023D4E70022D5E70022D7E70022D9E7B6
:104C80000022DBE70003005000F01F02400908D0BB
:104C9000012809D1054BD3F81005D04000F00100E0
:104CA00070474FF0A043F6E70023F4E700030050FD
:104CB00000F01F03400909D001280AD1064A03F574
:104CC000E07352F82300C0F3014070474FF0A04258
:104CD000F5E70022F3E700BF0003005000B583B002
:104CE00084468E460D4B93E8030002AB03E90300B4
:104CF00063460BE002A901EB830151F8081CD1F8CF
:104D0000200542F8040BC1F8200501330CEB0E001E
:104D10009842EFD803B05DF804FB00BF40A000004C
:104D200000F01F01400907D0012808D1054A0123DE
:104D30008B40C2F8203570474FF0A042F7E70022C1
:104D4000F5E700BF000300504309034AD35C00F0BD
:104D50001F001844C0B27047DCB200000048704722
:104D6000080500202DE9F04184B005460C461646A2
:104D70001F460846FFF7E8FF804656B321462846FF
:104D800004F0A5FA28B12146284604F060FA00286C
:104D900041D12146284604F069FA10B17378012BFD
:104DA00039D001238DF80F30002301930096B31CF6
:104DB000721C0DF10F012046FFF708FF2879FFF75D
:104DC000CDFF08F1080230F8123043F0030320F859
:104DD0001230002F39D02146284604F078FA0028F6
:104DE00035D13E782B6806F5A272002143F82210D7
:104DF0002879FFF7B3FF08F1080230F8123023F0EA
:104E00002003DB04DB0C20F812307B782BB911482F
:104E100004B0BDE8F0811048FAE7BA780092224663
:104E20003146286804F08EF92879FFF797FF02468B
:104E300008F1080032F810307603B6B2334343F07D
:104E4000200322F810300348E2E70248E0E7024876
:104E5000DEE700BF0000AD0B0400AD0B70B50646E9
:104E60000D46144604F0F3F968B13079FFF776FF88
:104E700006462846FFF768FF083036F810305B0B0F
:104E80002370024870BD0248FCE700BF0000AD0B74
:104E90000400AD0B30B583B005460191002400E05D
:104EA0000134012C18D80E4B1B5D03F0070202A938
:104EB00001EBD30313F8043CD34013F0010FEFD000
:104EC00005EB840201212046FFF708FF55F8243046
:104ED000002BE5D0012000E0002003B030BD00BF72
:104EE000ECB200002DE9F04182B005468846164636
:104EF0001F4604F038FBAEB33A463146284604F06C
:104F000042FA041E20DB2879FFF728FF40F83460BE
:104F10002879FFF723FF00EBC40047602879FFF7EB
:104F20001DFF05464046FFF70FFF083035F81030EB
:104F3000E4B26402A4B2234343F4807325F8103032
:104F4000094802B0BDE8F0812879FFF707FF0DF1AD
:104F500007017830FFF7A4FC034B9842F1D19DF88C
:104F60000740D0E70048ECE70000AD0B2DE9F04327
:104F700085B004460D4617460846FFF7E5FE06468F
:104F8000D7F80080B8F1000F28D02946204604F059
:104F90008DF900284FD100238DF80E308DF80F3099
:104FA0000193009343460DF10F020DF10E012846C7
:104FB000FFF70CFE2079FFF7D1FE06F1080830F864
:104FC000183023F0020320F818302079FFF7C6FECE
:104FD00030F8183043F0010320F818307B68F3B143
:104FE00093F80080D3F804902946204604F04FF946
:104FF00018B3B9F1000F65D12079FFF7AFFE08367D
:1050000030F8163023F01C0320F816302079FFF713
:10501000A5FE30F8163043EA880320F81630BA6847
:10502000002A53D05368126829462046FFF75AFFDA
:1050300005B0BDE8F0832648FAE72079FFF78EFE39
:1050400006F1080230F8123023F02003DB04DB0CF9
:1050500020F81230B9F1000FCED0B8F1030F33D8D9
:105060007B685B6893F80090B8F1000F06D1236865
:1050700009F5A279002243F82920BDE7404604F053
:105080002EF90346216809F5A27C51F82C2022F064
:10509000030241F82C202A464946206804F039F8DA
:1050A0002079FFF75BFE06F1080230F812304FEA74
:1050B00049391FFA89F943EA090343F0200320F82C
:1050C000123099E70248B3E70148B1E70148AFE77A
:1050D0000400AD0B0000AD0B38B505460C4604F0DE
:1050E000A7F808B9074838BD2146284604F028F932
:1050F0002146284604F062FA204604F07DF8024872
:10510000F1E700BF0400AD0B0000AD0B70B582B03D
:1051100005460E460079FFF721FE90F8803013B166
:105120000B4802B070BD044660220021103004F02C
:1051300041FE236F0093002332464FF00041286860
:1051400004F066FA012384F88030A3670148E8E799
:105150000C00AD0B0000AD0B2DE9F04383B0804691
:105160000F46002300930193C96F6846FFF792FE34
:105170004BE094FAA4F4B4FA84F404F01F05254B30
:105180009B5D45EA43152846FFF7DEFD083037F8FA
:105190001090C9F382090DEB8603E00804F00704C0
:1051A0001A5C0121A14022EA01021A542846FFF7A5
:1051B0007FFD03464A462946384604F094F92846BE
:1051C000FFF7AEFD02AB03EB860353F8084C002C4F
:1051D000CFD10136012E0DD80F4B9B5D07F17C021C
:1051E000D90803F00703525C22FA03F313F0010F0E
:1051F000EFD0E7E73A6F4FF00041404603F0DEFFA3
:10520000F96F6846FFF746FE08B10026E2E703B0F3
:10521000BDE8F083F0B20000ECB2000008B502492E
:10522000024804F040FA08BD080500200060004074
:1052300008B501460148FFF733FB08BD8C05002087
:1052400010B5134CA8220021204604F0B3FD03231F
:10525000236163610F4AA2610F4BE3614FF48063E6
:1052600023620023A3626362E36222660B4A6266E2
:105270001022A2662367E366636706E0C3F10F02AC
:105280000749895C024AD15401330F2BF6D910BD6E
:1052900010040020F4B200001000002000000020E4
:1052A00000B3000008B500230F2B0AD8094AD25CCE
:1052B000D2B2C3F10F010848415C8A4204D10133E4
:1052C000F2E7002313B908BD0123FBE7FFF7B8FF9E
:1052D000F9E700BF1004002000B300002DE9F843F7
:1052E00004460E461546304B00EB400003EBC00071
:1052F000826A476A601C00EB400003EBC0035868F9
:105300003844BA423CD804EB4401274B03EBC103B9
:10531000D3F82080A8EB070909F1FF339D4204D997
:1053200013449D420ED900202FE02A46314604F056
:1053300033FD2F4404EB44041B4B03EBC4035F62B7
:10534000012022E04A46314604F026FDA7EB08087A
:1053500018EB050507D104EB4404134B03EBC4031E
:105360005D62012011E0631C03EB43030E4A02EB74
:10537000C3032A4606EB0901586804F00DFDEAE76D
:10538000D21B013AAA4202D20020BDE8F8832A4685
:1053900004F002FD2F4404EB4404034B03EBC4036D
:1053A0005F620120F1E700BF10040020064B00EB14
:1053B000400203EBC202926A00EB400003EBC00321
:1053C000586A801A704700BF10040020034B00E0A9
:1053D0001433034A9342FBD3704700BF209F000061
:1053E000709F000004280CD8DFE800F0030D0507CB
:1053F0000900064870470648704706487047064847
:105400007047064870470648704700BF14B3000055
:1054100038B3000048B3000054B3000064B3000088
:1054200024B3000030B108B504F0C6FA20B1037807
:1054300023B108BD024870470148FAE70048F8E781
:1054400074B3000010B50446FCF738FC034A012190
:10545000034802F0C5FE204604F097F97CB3000033
:10546000FC9F00002DE9F04782B000AF05460C46D6
:10547000EFF31188202383F31288BFF36F8FDFF8D7
:10548000C491D9F80860FFF7ADFF99F81010E9460C
:1054900001233B7103237B718AB0EC461CF110029F
:1054A00021D04FF0160E5AB17346BEF1040F03DD42
:1054B000DFF894A1CCF814A0082B01DDCCF818502B
:1054C00001233B7003237B70D2B17346BEF10C0FF6
:1054D00001DDCCF81C00102B01DDCCF820100CF104
:1054E000240300210AE06FF0004EDCE701F1080020
:1054F000384410F8080C03F8010B01310129F5D9E3
:10550000BEF1150F50DD16234AB105213971002176
:105510007971B9710121F9717868CCF81000002116
:105520006FF300016FF341016FF382016FF3C50167
:10553000012060F38811C3F30A0363F353216FF36F
:105540001F5100234148FCF7B3FCCD461CB1E36971
:10555000C3F308035BBB3046FFF764FFE946012352
:105560003B7103237B718AB0EC461CF1100224D0FE
:105570004FF0120E52B17346BEF1040F02DD3449F2
:10558000CCF81410082B01DDCCF8186001233B7017
:1055900003237B70F2B1BEF10C0F01DDCCF81C00CF
:1055A0000CF12003002113E06FF01B03ACE7294A44
:1055B0000121264802F014FECDE76FF0004ED9E736
:1055C00001F10800384410F8080C03F8010B013110
:1055D0000129F5D9BEF1110F31DD12234AB10421A1
:1055E000397100217971B9710121F9717868CCF8AC
:1055F000100000216FF300016FF341016FF382018E
:105600006FF3C501012060F38811C3F30A0363F34C
:1056100053216FF31F5100230C48FCF749FCCD4682
:1056200021462846FFF70EFF88F31188BFF36F8FDE
:105630003046FDF7BBFD0837BD46BDE8F0876FF08B
:105640001B03CBE7881800208CB30000FC9F0000F0
:10565000D8B30000B4B3000038B505460A4B53F880
:10566000204002E02368984708346B1C064A52F831
:105670002330A34206D96368002BF3D0204604F000
:105680008CF8F1E738BD00BFF8B3000010B586B064
:10569000104C04EBC01400EB400C00EB80000E4BF0
:1056A00003EB800300220592012104910F21039155
:1056B000029201920093094B4FF4A072084901EB4A
:1056C000CC11204600F0B2FA637B23F0040363732D
:1056D00006B010BD600D002088180020EF98000073
:1056E0004026002008B553EA020102D100F01CFE5A
:1056F00008BD0249183000F0BDFFF9E7B59B000076
:1057000010B586B0184C14E0636A0593236A0493BD
:10571000E3690393A3690293636901932369009387
:10572000E368A2686168206800F080FA23685C651D
:1057300030340E4B9C42E7D300F006FD0A4C00E0EB
:1057400030340A4B9C420BD2A26AE36AB3F1FF3FAA
:1057500008BFB2F1FF3FF3D02068FFF7C3FFEFE7C8
:1057600000F00AFD06B010BD709F0000709F0000A1
:1057700008B50B4B01221A700320FFF76DFFFCF7F1
:1057800061FF04F02AF80420FFF766FFFFF7B8FF77
:10579000FAF72AFE034A137B23F00103137308BDB3
:1057A0009F1A0020E00D002008B50146014A02487A
:1057B000FDF7E6FD71570000E00D002008B5034835
:1057C000034A121A002104F000F808BD78080020EE
:1057D000A01A002010B50446FFF758FF0B4901EB53
:1057E000C4110B4A04EB840302EB8303D9601C74DD
:1057F00004EB4411074B03EB811303F5046304EB43
:10580000840402EB8402536010BD00BF600D0020D1
:1058100088180020001E002070B586B000F0E4FC5F
:10582000104D114B5D61114B05930123049300242E
:1058300003940294019400940D4B4FF400620D49BF
:10584000284600F0F3F906466B7B23F004036B73E4
:10585000284604F047F92046FFF7BCFF304606B063
:1058600070BD00BFE00D002088180020F0B30000DC
:1058700071570000C027002008B50020FFF7ECFE9C
:105880001D4B83F308881D4C636943F40073636107
:10589000E02384F822300025E57725766576A57625
:1058A00084F82050636A43F4E023636284F8235051
:1058B000FDF7FEFBFDF782FD4FF0FF33A362E362CD
:1058C000FDF76EFEFDF7AAFDFCF760F90C4B012415
:1058D0005C731C731D665D66DD660A4A9360FFF7A4
:1058E00075FD2046FFF7B8FE0220FFF7B5FEFFF773
:1058F00093FFFFF759FF00BF4026002000ED00E0B6
:10590000600E00208818002010B5064C002000E032
:105910001C34054B9C4204D2204603F05FFF002854
:10592000F6DA10BDF8070020F807002030B583B084
:105930000D46EFF31181202484F31288BFF36F8F9B
:10594000C46864B12C602368C360836901338361D8
:10595000002081F31188BFF36F8F03B030BD00F1D9
:10596000080C53EA020404D100232B606FF00B00F3
:10597000EFE7009201930246604600F02FFB0028FB
:10598000EBD1024B9B685B692B60E6E7881800202F
:105990002DE9F04182B00446EFF31187202181F315
:1059A0001288BFF36F8FC16899B9002950D1364B67
:1059B0009B6893F90E3023610131E160324B9B68A3
:1059C000A36087F31188BFF36F8F002002B0BDE89A
:1059D000F08116461D4682682B4B9B689A42E4D0A4
:1059E00055EA060136D092F90E80414693F90E0031
:1059F00003F08AFF804534DC4FF0000800960195E3
:105A000022463946214800F0E9FA0028DED0EFF3BB
:105A10001185202383F31288BFF36F8FA36843B3EC
:105A200023689C4223D013B3216993F90E0003F03D
:105A30006BFF0146204603F072FFE8B9B8F1000F92
:105A40001AD185F31188BFF36F8F6FF00A00BDE79D
:105A50002369B0E787F31188BFF36F8F6FF00F00F2
:105A6000B4E70146204603F05AFF8046C6E72169A5
:105A7000E0E7B8F1000FE4D02946044800F038FB15
:105A80006FF00A00A2E700BF88180020A8180020C5
:105A9000F8B58368002B46D00446264A92689342A4
:105AA00044D1C368012B04D9013BC36000252846BB
:105AB000F8BDEFF31186202383F31288BFF36F8FB5
:105AC000016903F02CFF2768A7420CD03D1E18BFC8
:105AD000012557B9A760CDB90023E36086F311888B
