:020000040800F2
:1000000010690020B92F000839BE0108A52F00088B
:10001000A52F0008A52F0008A52F0008A52F000870
:10002000000000000000000000000000B5300008E3
:10003000A52F00080000000019300008A52F0008B7
:10004000F50700089532000895320008953200083F
:100050009532000895320008953200089532000864
:100060009532000895320008953200089532000854
:100070009532000895320008953200089532000844
:100080009532000895320008953200089532000834
:100090009532000895320008953200089532000824
:1000A0009532000895320008953200089532000814
:1000B0009532000895320008953200089532000804
:1000C00095320008953200089532000895320008F4
:1000D00095320008953200089532000895320008E4
:1000E00095320008953200089532000895320008D4
:1000F00095320008953200089532000895320008C4
:1001000095320008953200089532000895320008B3
:1001100095320008953200089532000895320008A3
:100120009532000895320008953200089532000893
:100130009532000895320008953200089532000883
:100140009532000895320008953200089532000873
:100150009532000895320008953200089532000863
:0C01600095320008953200089532000826
:1001700053B94AB9002908BF00281CBF4FF0FF310E
:100180004FF0FF3000F00CB8ADF1080C6DE904CE73
:1001900000F018F8DDF804E0DDE9022304B0704750
:1001A000704700BF034611F8012B03F8012B002A0A
:1001B000F9D17047034613F8012B002AFBD1181A16
:1001C000013870472DE9F04786468C460846089E60
:1001D000154674461946002B40F0C1808542B2FA9C
:1001E00082F245D94AB1C2F1200300FA02FC9540DF
:1001F00094402EFA03F343EA0C0C4FEA154EA8B2D2
:10020000230CBCFBFEF80EFB18CC08FB00F943EAFC
:100210000C43994528D9EB1808F1FF3704D29945CA
:1002200002D9A8F102072B44A3EB0903A4B2B3FB44
:10023000FEFC0EFB1C330CFB00F044EA0344A0421E
:1002400014D92C190CF1FF3304D2A04202D9ACF11D
:1002500002032C44241A43EA07401EB1D440002371
:1002600034607360BDE8F0874746DDE76346F1E739
:1002700092BB431B01214FEA154EAFB2200CB3FBDA
:10028000FEFC0EFB1C330CFB07F840EA03439845C9
:1002900061D9EB180CF1FF3004D2984502D9ACF1CA
:1002A00002002B44A3EB0803A4B2B3FBFEFC0EFB3D
:1002B0001C330CFB07F744EA0344A7424DD92C1921
:1002C0000CF1FF3304D2A74202D9ACF102032C4453
:1002D000E41B43EA0040C0E7C2F12003954094408C
:1002E00020FA03F12EFA03F34FEA154E9040AFB215
:1002F0000343B1FBFEFC0EFB1C10190C0CFB07F8B2
:1003000041EA0041884522D969180CF1FF3004D236
:10031000884502D9ACF102002944A1EB08019BB247
:10032000B1FBFEFC0EFB1C110CFB07F743EA01437B
:100330009F420ED9EB180CF1FF3104D29F4202D933
:10034000ACF102012B44DB1B41EA004193E760461C
:10035000E3E76146F7E76046A4E76346B8E7834210
:1003600006D916B9002108467CE7C6E900E0F9E79E
:10037000B3FA83F78FB9834201D3724508D8BEEB35
:10038000020460EB030301209C461EB9002169E7CB
:100390003846FAE7C6E9004CF8E7C7F1200CBB4045
:1003A0000EFA07F522FA0CF42EFA0CF1BA401C43AF
:1003B00020FA0CF3B8404FEA144901431FFA84FEB7
:1003C000B3FBF9F809FB18300B0C08FB0EFA43EAF3
:1003D00000439A4540D9E31808F1FF3004D29A450A
:1003E00002D9A8F102002344A3EB0A0389B2B3FBAC
:1003F000F9F809FB183308FB0EFE41EA03418E456C
:100400002CD9611808F1FF3304D28E4502D9A8F126
:100410000203214443EA0040A1EB0E01A0FB029835
:100420004145CE46434602D306D14D4504D201385C
:10043000B9EB020E68EB0403002EA7D0B5EB0E0259
:1004400061EB030101FA0CFC22FA07F3F9404CEAD4
:100450000303C6E9003199E74046C5E74346D9E7BB
:100460002DE9F04F97B0904681460C461EF0ECFB0C
:100470008A4600214E4A06461368D2F804B00FA8F7
:100480001C220E91039324F018FB0021494DCDE965
:1004900006112A68CDE90811CDE90A11CDE90C1140
:1004A0001AB1454A039B12681AB9002017B0BDE87B
:1004B000F08F1E2CF9D8414F3A88B2F5806F28BFD3
:1004C0003980F0184AEB0B0137A3D3E90023FFF77B
:1004D0004FFE1D2206460021394824F0EEFA04237F
:1004E000002200933146104605AB09F06FF8002852
:1004F000DBD13A88DFF8CCA0C2F301238AF80230BE
:10050000059B8AF80320CAF804300C233146009377
:10051000012006AB09F05AF80028C6D12023009329
:1005200031460EAB02203A8809F050F82B6801469C
:1005300020B110211B6806A89847B6E70AF10C0BFA
:10054000CDE9004B06AA5E680EA84B46B0470646AA
:10055000C8B92B6822469E6859460AAB0EA8B04718
:10056000064658B90A9BCAF808303B8801333B80DD
:10057000B8F1000F02D00C34C8F800402B681021ED
:100580001B680AA898472B6820211B680EA898476B
:100590002B6810211B6806A89847002E85D10948B2
:1005A00084E700BFAFF30080005C26050000000078
:1005B000C00A0020A8170020A41700205026002001
:1005C000710300206F03002007B588B10BA3D3E9A6
:1005D00000230949C1E90223CDE900234FF0FF328E
:1005E0004FF0FF33086923F04DFD03B05DF804FBC5
:1005F00000220023EDE700BF480E00200DD5015575
:1006000020000000014809F08BBB00BF6C040020F3
:1006100007B503210D4803F0B1F903210B4801AAE6
:10062000FFF71EFF034668B10948019A436142740F
:100630001622012302740321064A04F033FB03B09F
:100640005DF804FB4FF0FF30F9E700BFAC26002057
:1006500080010020F864020870B53C4D88B028681D
:100660001EF033FB00286AD039481BF0D7FA39480E
:100670001BF0D4FA384C394E286883681B6863B184
:100680000DF10B01984740B99DF80B2023680A2A09
:1006900008D12D2B0CD000232360002104201EF054
:1006A00051FEE9E72D2BF6D8591C2160F254F4E7EE
:1006B0002A4B2B4A03F1200153F8040B8B4242F8DA
:1006C000040BF9D1264809F041F800283AD1254811
:1006D00024F0FBF909F01AF8044628BB03F058FF90
:1006E000044608BB204E03AD0FCE0FC5336822462B
:1006F0002B6001232146009303A81C4B04F02CFC23
:10070000044678B94FF4701200231948CDE900234C
:100710000AF076FC174DFFF77BFF044638B114480A
:100720001EF0E4FE03F01EFC204608B070BD4FF042
:10073000FF324FF0FF33284609F02CFBEBE76FF058
:100740001204F1E74FF0FF34EEE700BF7C01002018
:10075000AAFE0208E4FE0208A01000207E26002067
:10076000AF2600209E26002088610208F864020857
:10077000B00300206C040020014B1B68184700BF29
:1007800098010020014B1860704700BF98010020BD
:1007900030B585B004460D4610220021684624F08D
:1007A0008CF902238DF80230044B2A462146684614
:1007B000019319F0FDFF05B030BD00BF79070008B7
:1007C00080B505460E46174698460AF0EDF80346F2
:1007D00024F05AFB0446DFF81890424649F80030EE
:1007E00039463046A84754F8090002F0FFFB00BF25
:1007F000080000000021034B0846DA68DB6808F0B7
:10080000E7BF00BF008000444FF480424FF0FF314B
:10081000022008B5104B9A66104A02F5005319667B
:100820000F4959660F49C1F8D000BFF34F8FBFF38E
:100830006F8F0120A1F54061C1F880014FF4403174
:10084000D960116100221046114602F053FCBDE848
:100850000840002002F040BC0090004000800044AE
:10086000F7FF370000ED00E0014B03600020704708
:100870000065020810B5044610F004F8A0BB03237D
:10088000A3836FF080236361052363760423A3763B
:1008900006F082FF1BF03CFAA080204610F024F8FE
:1008A00018BBE06810B310F047FF1EF0C9FE1FF040
:1008B00086F820F073FA21F006FD1EF0C1FE01213A
:1008C0000022084622F0D0FD032101200DF03CFF5C
:1008D0000AF01AFE0BF0CEFC0BF0BEFC0BF084FB12
:1008E0000CF0BCF91BF0BCF9002010BD0048DAE7A1
:1008F0005C03002070B5044623F0A9FC064630B91D
:100900000FCC044D0FC594E8030085E80300304682
:1009100070BD00BFA410002047F6FF739A42F0B5E7
:100920006FD002296FD8394B5B5C012B6BD8384DE7
:10093000DF0005EBC30415F83330A178012B13D188
:100940000025E078401AA84202D80844C0B2F0BDA1
:10095000431B6668A0EB530336F913609642D4BF7D
:100960001D4603F1FF30EEE760680028EFD0B0F9D4
:100970000040944204DBB0F902409442B8BF1446F0
:1009800083883D44FF2B19BFC8224FF0280CB0F9D3
:100990000620B0F908C0A2EB04030CBF0126002614
:1009A00093FBFCF333446E781BB29E4201DD002BB7
:1009B00001DA731E1BB24FF47A7C01339BB2071D20
:1009C0005D1E2DB24FEAC50E00EBC505EA88AD6885
:1009D0009E4214FB025222EAE27202F15C02B2FB76
:1009E000FCF204DD37F8335001339542E8D200EBD6
:1009F0000E039888904228BF1046884238BF0846A8
:100A0000A4E7FF20A3E70020A1E700BF4BFF0208F7
:100A1000A41000200229F0B555D82C4B585C0128B1
:100A200051D82B4C04EBC00114F830004B6801285E
:100A30000FD1C8788C78904294BFC4EB0001C4EB0E
:100A40000201001BCAB28242C8BF002233F9120061
:100A5000F0BD002B37D08878904202D3B3F9020062
:100A6000F6E7CC78B3F900009442F1D94C78998834
:100A7000013CA1F1FF06714203F10405E4B27141AA
:100A800003F10C07CEB2B44216D805EBC1014FF406
:100A90007A756A43B1F902404968521A04EBD4717D
:100AA00002EB610292FBF4F29042D1DBB3F9020057
:100AB0009042CDDC10B2CBE737F831C04E1C9445E4
:100AC000E3D33146DEE70348C2E700BF4BFF02082D
:100AD000A41000200080FFFF08B50448FFF70AFFBC
:100AE000BDE80840012023F0B6BB00BF0C6502083A
:100AF0000048704736030020014B1860704700BF64
:100B0000A0010020054B1860054B1B6F03F0070385
:100B1000032B01D124F0C0BD704700BFA801002005
:100B2000008000504FF48032064B5A6603F5E623EE
:100B30009B69C3F38512827003F03F021B0B427066
:100B40000370704700900050014B986CD96C70474F
:100B50000080E00F70B504460D4625F0A4FA0C2C79
:100B6000064616D80C2C18D8DFE804F01B1B171B00
:100B70001B2A171B2E17311734000123194AA340D3
:100B800013421DD1062C2AD0DB0706D54FF4F060A6
:100B900022E00D3CE4B2132CEFD9002321242B805A
:100BA00009E0802000F0BCFF4FF6FF7398420CBFB5
:100BB0000E2400242880304625F070FA204670BDAF
:100BC00000230F242B80F6E74FF48060EAE74FF410
:100BD0004060E7E74FF4C06000F084FFE4E74FF4C3
:100BE000E060F9E71C450D0030B58BB06C46984DC0
:100BF000984825F06CF90FCD0FC42B68964A2360F6
:100C0000FF238DF80130D2F84C3113F4802340F0EB
:100C10001281D2F850218DF801309DF801306C46D8
:100C2000FF2B08BF3F2368468C4D8DF8013001F043
:100C30004DF8322001F088F80FCD0FC40FCD0FC44E
:100C400095E8030084E80300834BD3F84C2110039C
:100C500040F1CE80A3F5FE431C88B4F5807F28BF09
:100C60008C248DF8194001F02BF8044484F3080417
:100C70007B488DF81840FFF745FF684600F05CFFA1
:100C8000322001F067F8774A774B0321CDE9002342
:100C90000023CDE9021301238020CDE9043300F0C5
:100CA00001FE052800F0A880704825F010F968467C
:100CB00001F052F96E4801F035FA6E4C6E4825F09D
:100CC00006F9002001F04CF801F0FCF8236F002039
:100CD00023F0070343F00203236701F01DF9236F9C
:100CE000664923F4744343F480632367644BD3F869
:100CF000FC2012F0807200F09380D3F8FC2022F0E8
:100D00008072C3F8FC20D4F8802022F0030242F065
:100D10000102C4F880200022C1F88020D3F8FC2012
:100D200042F08072C3F8FC20524CD4F8203123F0FA
:100D3000070343F00103C4F82031D4F8283123F02D
:100D4000070343F00103C4F82831D4F8803123F0BD
:100D5000030343F00103C4F88031D4F8403123F099
:100D6000030343F00203C4F84031D4F8603123F0A8
:100D7000030343F00203C4F86031D4F8403223F097
:100D8000030343F00203C4F84032D4F8003223F0E6
:100D9000070343F00203C4F80032D4F8083223F00A
:100DA000070343F00203C4F80832D4F8703223F08A
:100DB000030343F00103C4F87032D4F8203223F067
:100DC000070343F00103C4F8203200F073FE4FF034
:100DD000E0220020136943F004031361D4F8603269
:100DE00023F0070343F00103C4F860320BB030BDB9
:100DF000D3F85041E4B234E71E4C1C48236F23F073
:100E0000070343F00103236725F061F8684601F00A
:100E1000A3F8236F23F0070343F00203236749E796
:100E2000D4F8803023F0030343F00103C4F880308A
:100E3000C1F8802078E74FF07E6393F89C2093F907
:100E40009C30002BFFF6E9AE8DF80120E5E600BFEF
:100E50009C6102087C6502080080E00FB061020816
:100E6000C0175302802FA604FF0E7F078465020877
:100E7000C0EA210100800050806502080090005007
:100E800000ED00E0054B9A689107FCD45A68920780
:100E9000F9D4DA69002AF6D1704700BF00800A5001
:100EA00008B503494B6824F085FC02230B6108BD9B
:100EB00000800A5008B5FFF7E5FF0122024B03F559
:100EC00080514A601A6108BD00800A5008B5044B81
:100ED0005868012803D1FFF7E3FF024B586008BDB3
:100EE00000800A5000A00A5038B5074DFFF7CAFF2E
:100EF0006B680446012B03D1FFF7E8FFFFF7C2FF41
:100F00002378EB6038BD00BF00800A5010B524F094
:100F10005BFCB8B94A680B7812B1127843EAC20395
:100F20004A7843EA42038A6812B1127843EA82138C
:100F3000CA7843EA82030A6912B1127843EA42236B
:100F4000014A936410BD00BF00800A5010B5002410
:100F500086B01422214601A88DF8004023F0ADFD93
:100F6000012313488DF8043024F0B1FFBFF34F8FF5
:100F70006846FFF7B9FF204601A98DF80440FFF746
:100F8000C5FF20460F2124F031FC0F21204624F01C
:100F900033FCFFF78FFF24F00DFC064B43209C61D0
:100FA00001F0F2FC43201AF03DFF06B010BD00BF77
:100FB0007C65020800800A5070B525F074F8144E64
:100FC00005463478FCB9134B1C60134B1C60134B63
:100FD0001C60FFF7BBFF012024F0E5FF24F046FC76
:100FE0000F4B0246186020B9284625F057F82320F9
:100FF00070BD234640F2E7310A48FFF7B9F80A4BC3
:10100000186001233370284625F048F80020EFE7E8
:10101000D1260020C4100020C0100020CC100020D9
:10102000C810002018FCFFFFBC100020044BD3F8B0
:101030008420D206FBD4D3F88400C0F3811070471B
:101040000040005038B5174B0546D3F828310C4600
:1010500003F00703013B052B20D8DFE803F003135F
:101060001B0F0B1724F0F8FA052305B1286004B113
:10107000236038BD24F0F0FA0623F6E724F02CFBB9
:101080000723F2E724F022FB0323EEE724F01EFB04
:101090000423EAE724F016FB0223E6E700231846C0
:1010A000E3E700BF00800050002337B50193164BE3
:1010B0000546D3F820320C4603F00703042B21D851
:1010C000DFE803F0030B11161B0001230DB1019A99
:1010D0002A6004B1236003B030BD002101A8FFF7EE
:1010E000B1FF1223F2E724F0F7FA07230190EDE7AE
:1010F00024F0E2FE0A230190E8E724F035FB0923FF
:101100000190E3E70023E1E70080005038B5104B81
:101110000546D3F880300C4603F00303022B0BD0B6
:10112000032B0DD0012B0FD124F09CFA0E2305B117
:10113000286004B1236038BD24F0CEFA0723F6E717
:1011400024F08AFA0623F2E700231846EFE700BFEF
:101150000080005038B5104B0546D3F800310C46DE
:1011600003F00303022B0BD0032B0DD0012B0FD167
:1011700024F0ACFA032305B1286004B1236038BD24
:1011800024F0F2FA0923F6E724F094FE0823F2E7AC
:1011900001230020EFE700BF0080005038B5184B56
:1011A0000546D3F820010C4600F00700062823D896
:1011B000DFE800F0040A0E16121A1E00012305B122
:1011C000286004B1236038BD24F046FA0523F6E711
:1011D00024F07CFA0323F2E724F07EFA0723EEE7FB
:1011E00024F070FA0223EAE724F036FA0623E6E751
:1011F00024F06CFA0423E2E700231846DFE700BF7F
:101200000080005038B5104B0546D3F840310C46ED
:1012100003F00303022B0BD0032B0DD0012B0FD1B6
:1012200024F04AFE0A2305B1286004B1236038BDCA
:1012300024F09AFA0923F6E724F041FE0C23F2E7A2
:1012400001230020EFE700BF00800050002337B5E6
:101250000193164B0546D3F860320C4603F00703A2
:10126000013B032B1FD8DFE803F0020E1914002105
:1012700001A8FFF793FF10230DB1019A2A6004B172
:10128000236003B030BD002101A8FFF7BBFF11238D
:10129000F2E724F021FA07230190EDE724F012FA97
:1012A00002230190E8E70023E6E700BF008000503A
:1012B000002337B50193164B0546D3F894320C46FC
:1012C00003F00703013B032B1FD8DFE803F0020EF6
:1012D0001914002101A8FFF761FF10230DB1019A35
:1012E0002A6004B1236003B030BD002101A8FFF7DC
:1012F00089FF1123F2E724F0EFF907230190EDE7CE
:1013000024F0E0F902230190E8E70023E6E700BFBC
:101310000080005038B5104B0546D3F860310C46BC
:1013200003F00303022B0BD0032B0DD0012B0FD1A5
:1013300024F0C2FD0A2305B1286004B1236038BD42
:1013400024F012FA0923F6E724F0B9FD0C23F2E7A2
:1013500001230020EFE700BF008000502E4B984291
:101360004AD022D82D4B984240D014D82C4B9842CA
:1013700039D00AD82B4B984232D02B4B98422FD0E1
:101380002A4B98422CD000207047294B9842FAD122
:10139000284B186F7047284B98422AD0274B984209
:1013A000F1D1244BD3F880007047254B98422BD0C5
:1013B00009D8244B984223D0234B9842E3D11D4BAC
:1013C000D3F88C007047214B984221D003F5740369
:1013D00003F510539842D6D1164BD3F898007047B6
:1013E000144B986D7047134B586E7047114B586FE4
:1013F0007047104B986F70470E4BD3F884007047BE
:101400000C4BD3F8880070470A4BD3F89000704714
:10141000084BD3F8940070470048E8010024F4001A
:10142000C0CF6A0080841E0000093D0040420F00CA
:10143000405DC6000080E00FC0EA210180BA8C0147
:10144000007E560380D54302006CDC020090D0037E
:1014500073B50D460021114B0191D3F8804106462A
:1014600004F00304022C13D0032C0CD0012C13D154
:1014700001A8FFF793FE10240EB1019B336005B164
:101480002C6002B070BD24F027F907240190F3E727
:1014900024F018F90190EFE70C46EDE700800050CA
:1014A00038B5104B0546D3F840320C4603F0030321
:1014B000022B0BD0032B0DD0012B0FD124F0FCFC01
:1014C0000A2305B1286004B1236038BD24F04CF92B
:1014D0000923F6E724F0F3FC0C23F2E701230020B4
:1014E000EFE700BF0080005038B5144B0546D3F835
:1014F00000020C4600F0070004281BD8DFE800F0CB
:1015000003090D111500012305B1286004B1236002
:1015100038BD24F0D1FC0A23F6E724F025F909238D
:10152000F2E724F0CCFC0C23EEE724F0B5F80F230F
:10153000800AE9E700231846E6E700BF0080005074
:1015400038B5144B0546D3F808020C4600F00700E6
:1015500004281BD8DFE800F003090D111500012352
:1015600005B1286004B1236038BD24F0A5FC0A232E
:10157000F6E724F0F9F80923F2E724F0A0FC0C23A5
:10158000EEE724F089F80F23800AE9E700231846E4
:10159000E6E700BF00800050B0F5207F1FD009D8DB
:1015A000B0F5007F15D003D868B1B0F5C07F0AD080
:1015B00000200CE0B0F5607FFAD10B4BD3F880002F
:1015C000C0F3011003E0084B186FC0F30330013083
:1015D0007047054BD3F89000C0F30460F7E7024B67
:1015E000186FC0F38020F2E70080005002464FF4ED
:1015F0008030104B10B598660020FFF7CDFF5043A8
:1016000041F671320C4BDC69DA635A6804F48034B9
:1016100022F4401259B90949884294BF00200120A0
:10162000000502435A600CB10022DA6310BD044980
:10163000F2E700BF0090005000000350005A620221
:10164000002D3101430905D0012B0CD0022B084B92
:1016500018BF002300F01F0039B103F580530122A9
:1016600082401A607047034BF4E703F50053F6E736
:1016700068800050648000501FB50021B0F5807F65
:101680000446CDE9001100F0D2803AD85E2833D864
:101690005E2833D8DFE800F045323232323232325F
:1016A000323232323232323232323232323232321A
:1016B000323232323232323245AC45ACBCBCBCBCC8
:1016C000BCACC64E6BDC4EACACAC323232323232D9
:1016D0003232ACACAC7EE6AC323232323232323202
:1016E0003232323232BC454545E14E4EEB8D63C15C
:1016F00032323232329E4500802870D0009804B0D9
:1017000010BDB0F5D06F00F0A38035D8B0F5607F84
:1017100079D01AD8B0F5007F65D005D8B0F5C07F74
:10172000ECD123F0B9FF5CE0B0F5207F60D0B0F5DC
:10173000407FE3D123F0B0FF02464FF42070FFF763
:101740002BFFB2FBF0F252085BE0B0F5B06F69D04E
:101750000AD8B0F5806F5BD0B0F5A06FCED1002174
:101760006846FFF7A1FCC9E7B0F5C06FC6D10021FC
:101770006846FFF747FDC1E7B0F5106F6DD00ED892
:10178000B0F5086F78D0B9D8B0F5E06F6AD0B0F591
:10179000F06FB3D100216846FFF7BCFDAEE7B0F5AE
:1017A000406F3AD013D8B0F5206F60D0B0F5286FF5
:1017B000A4D10021324B0391D3F8703203F003031C
:1017C000012B02D103A8FFF71DFD039B39E0B0F503
:1017D000486F93D100216846FFF76AFD8EE723F03A
:1017E00041FF00908AE723F03DFF0246204604E0D7
:1017F00023F052FF02464FF42070FFF7CDFEB2FBFC
:10180000F0F200927AE701A8FFF780FC019AEDE779
:1018100000216846FFF7C2FC70E700216846FFF729
:1018200011FC6BE700216846FFF712FE66E74FF0F8
:10183000E02302911B695B0705D523F02DFF029081
:10184000029B00935AE703A902A8FFF7DBFCF7E726
:1018500000216846FFF748FE50E700216846FFF781
:101860006FFE4BE700216846FFF71AFE46E70021AE
:101870006846FFF7EBFC41E76846FFF76BFC3DE786
:101880000080005008B58020FFF7F6FE034B984219
:101890009EBF4FF48032024B1A6708BD005A6202A5
:1018A00000A000501FB503460020B3F5807F0190D3
:1018B00000F0C58065D85D2B56D84C2B07D82D2B52
:1018C00048D8232B2CD8019805B05DF804FB4D3B7C
:1018D000102BF8D801A252F823F000BF351A0008E7
:1018E000C7180008C7180008C7180008E31900083F
:1018F000C7180008C71800088F1A0008011A000846
:10190000A7190008851A0008C7180008C71800089A
:10191000C7180008C7180008C7180008991A000857
:10192000243B092BCFD801A252F823F0351A000826
:10193000351A0008351A0008351A0008351A00084B
:10194000C71800082B1A0008C7180008C319000898
:101950006B1A00083D2B00F083803E2BB3D1002092
:1019600001A9FFF79DFDAEE7802BACD1504B1B6F5B
:1019700003F00703013B032BA5D8DFE803F0544D28
:101980005052B3F5F06F6BD020D8B3F5B06F4CD098
:101990000ED8B3F5607F71D095D3B3F5806F49D081
:1019A000B3F5A06F8FD1002001A9FFF77DFB8AE777
:1019B000B3F5D06F59D0B3F5E06FD0D0B3F5C06FA9
:1019C00081D1002001A9FFF71DFC7CE7B3F5206F52
:1019D0005DD00BD8B3F5086F4CD0B3F5106F7FF422
:1019E00072AF002001A9FFF7ABFD6CE7B3F5406FC4
:1019F00048D0B3F5486F4FD0B3F5286F7FF463AF8D
:101A00002B4BD3F8703203F00303012B49D0022B88
:101A10000CBF1523002300E00523019353E70323A4
:101A2000FBE70823F9E70223F7E7002001A9FFF706
:101A30000FFD48E7002001A9FFF7B0FB43E74FF097
:101A4000E02302901B695B0705D523F025FE0D23DB
:101A50000393039BE1E703A902A8FFF7D3FBF8E791
:101A6000002001A9FFF756FC2DE7002001A9FFF790
:101A70003BFD28E701A9FFF76DFB24E701A9FFF76C
:101A800045FB20E7002001A9FFF7DCFA1BE7002057
:101A900001A9FFF7DBFB16E7002001A9FFF708FC0F
:101AA00011E7002103A8FFF7ADFB1123B5E700BF45
:101AB000008000504FF48032074B0849586E03F500
:101AC00080535A664B6A23F001034B62C3035CBF29
:101AD000034B5A66704700BF0080005000C007509B
:101AE00000A0005008B5FFF7DDFE092811D00A3824
:101AF000012802D94FF6FF7008BD4FF48002064B53
:101B00005A6603F5D8335B6ADB07F3D54FF4FA70F6
:101B1000F2E7024B1888EFE7009000503E030020E8
:101B200008B5FFF7BFFE03280ABF024B4FF6FF7050
:101B3000188808BD3C03002038B504468020FFF714
:101B4000B1FE032800F08A804FF48012544B4FF00E
:101B5000A0615A6645F60E03524AC2F88030524BD5
:101B600099624FF4803103F580539962936DD903E4
:101B7000FCD4916D11F08041FBD1D4E900031B0529
:101B800043EA0063E07B0343207B43EA0043607B3E
:101B900043EA0033A07B43EA801313619069D4E9E0
:101BA00004531B0643EA856300F000400343A07E14
:101BB0000343207E43EA0043607E43EA00239361AF
:101BC000136AE06923F00F030343003818BF0120B4
:101BD000E57E43EA850343EAC0031362E369334DBC
:101BE000002B3CD194F82430916A94F82000DB005B
:101BF000294043EA40130B4394F8211043EA0113B0
:101C000043F4803393622A49264A936D31EA0303F1
:101C1000FBD14FF08071244881621369A56823F4D9
:101C2000700343EA055313614FF00043836194F856
:101C300022300BB91F4B996294F823303BB94FF413
:101C400080321C4B9A62174A936D5B00FCD494F867
:101C500025301BB1134B184AC3F8802038BD022B26
:101C600008D11161154891614FF408524FF47F413A
:101C70001AF050F80B4994F822308A6A94F8200040
:101C80001B062A4043EA4013134394F8242043EAF6
:101C9000C20394F8232043EA02438B62D7E700BFD4
:101CA000009000500040005A0050005AC7FFFEFE4E
:101CB000030001000060005AF1A7FFFF3440005A02
:101CC000014B93F9000070476E0300204FF40001B0
:101CD0001B4A437810B551664FF4D151022402F5E6
:101CE000B832516217494F2B4C604FF0010428BFA6
:101CF0004F2301F580514C601169C903FCD4017870
:101D000043EA01235361D0E901131B0143EA012394
:101D1000417B0B43017B43EA41039360C37B817B9F
:101D20001B0143EA4113417C0B43017C43EA41031D
:101D30005360837C13B16FF4D153536210BD00BF65
:101D40000090005000100250014B1880704700BFF7
:101D50003E030020014B1880704700BF3C03002069
:101D60004FF4800208B5184B5A660223174A536095
:101D7000936813F48033FBD1012822D123F0A6FC11
:101D8000134B984215D003F5122303F5F8639842DC
:101D900013D0104B00EB8002400AB3FBF0F3520A61
:101DA0000A49CA620B6301234B620022074B5A6047
:101DB00008BD45F67A13084AF2E745F61A03074AC2
:101DC000EEE75362F1E700BF009000500040025080
:101DD00000F0490264666666D8B80500BBCF05000E
:101DE000B0F5207F10B50C465DD008D8B0F5007F67
:101DF0004ED003D8C0B1B0F5C07F15D010BDB0F53E
:101E0000607FFBD12C4B4C1ED3F8FC202B4912F0E9
:101E1000807F4FEA041427D1D1F8803023F03003BB
:101E20002343C1F88030E9E719F083FF19F08FFFF1
:101E30004FF48031224B214A1967136F013C23F480
:101E4000704343EA0433136723F026FC0446FFF78C
:101E5000EDF8C0F10201204619F073FF00F04AF8D6
:101E6000BDE81040FFF70EBDD3F8FC2022F08072D1
:101E7000C3F8FC20D1F8802022F030022243C1F8C0
:101E80008020D3F8FC2042F08072C3F8FC20B5E734
:101E90000A4A4C1ED2F8903023F0F85343EA046308
:101EA000C2F89030AAE7054A4C1E136F23F48063F2
:101EB00043EA84231367A1E700ED00E000800050AF
:101EC0000090005008B50121022000F0BFF94FF446
:101ED0002070FFF761FB054B187019F02AFF19F00D
:101EE00036FF4FF48032024B1A6708BDD22600201D
:101EF0000090005008B54FF4C070FFF7BDFBBDE87F
:101F000008400449884294BF012102214FF4207007
:101F1000FFF766BF80F0FA0238B5044623F0BCFB39
:101F20000546FFF783F8C0F10201284619F009FFC2
:101F30000121002000F0CAF92CB1FFF7DBFFBDE85A
:101F40003840FFF79FBC034B4FF420701978FFF720
:101F500047FFF4E7D22600204FF4C02201212DE9EB
:101F6000F0410746684B5A66684A03F598335C6847
:101F700051605D6815F00205FBD13E68FFF756F829
:101F8000012805D1624B9E4202D90020BDE8F081B4
:101F9000604A002311461068864202D35068864288
:101FA00005D90133192B02F11002F4D1002301EB02
:101FB0000313D3E9028028B1FFF7D0F900F07F00C6
:101FC00048EA00088020FFF76DFC05287AD119F057
:101FD000B0FE19F0BCFE4FF480324B4B4FF4C07092
:101FE0001A67FFF7D9FA0128054667D102214FF495
:101FF000C070FFF7F5FE0126474BDA6812F0060FB6
:10200000FBD19968C3F808809A6882EA080212F442
:10201000F81F6BD1BA88FB8843EA02433F4AD3607A
:10202000BB68032B50D1A2F5A032D2F8003123F0C7
:10203000030343F00103C2F800317B7D3A7D9B012D
:1020400043EA82033A6913433A7B43EA4203334A41
:1020500093603868FEF750FD002707222B4B1A616A
:102060000122A3F580535A60A3F580531C6914F034
:102070000704FBD08020FFF715FC052817D126B1F7
:1020800029464FF4C070FFF7ABFE23F005FB054671
:1020900023F0E2FA23F0E0FAFEF7C8FFC0F10201F4
:1020A000284619F04EFEFFF725FFFFF7EBFB002F48
:1020B0007FF46BAF631E5842584167E7022801D195
:1020C000042194E7002697E7092B07D1144AD2F898
:1020D000003123F0030343F00203ACE7082BACD13B
:1020E0000F4AD2F8003143F00303A4E714F00104CF
:1020F000996001D00127B0E78020FFF7D3FB0528C6
:102100007FF443AF0127BAE70090005000E0015090
:10211000005A6202886502080000015000C00150A8
:1021200000800050304B314A984251D020D8A3F55E
:10213000B703A3F55863984246D00DD82C4B98426C
:1021400031D02C4B984239D02B4B4FF40021984280
:102150001DD00023516622E0284B4FF40021984205
:10216000F7D1274BD3F8BC30516623F0407316E00B
:10217000244B984230D0244B984231D0234B4FF41B
:1021800000219842E5D11E4BD3F8C830ECE71C4B38
:10219000D3F8A030516623F0407343F000734FF042
:1021A000B442936070474FF40021154BD3F8A03030
:1021B000516623F0407343F08073F0E7104BD3F87F
:1021C000A0304FF40021CFE70D4BD3F8B830F8E73B
:1021D0000B4BD3F8C030F4E7094BD3F8CC30F0E721
:1021E000074BD3F8D030ECE7C0EA21010090005053
:1021F00080841E0000093D0040420F000024F400CE
:102200000080E00F0048E801005A620280BA8C01A9
:1022100007B5094B18689A889B7900906846ADF815
:1022200004208DF8063000F0BFF80C2000F0F4F820
:10223000002003B05DF804FB59620208024A536BA8
:102240000342FCD1704700BF00400950F8B5044676
:102250001C4BD3F88420D106FBD4D3F88430C3F3CD
:1022600081139C422CD023F0FDF9012C064602D1AB
:10227000214619F066FD23F00DFF4FF00072124B5E
:1022800007465A66204619F067FD4FF480630D4DEE
:10229000621E93402B676B6E9A0103D4D5F884308D
:1022A0009B060AD5384623F0F0FE022C08D13046B2
:1022B000BDE8F840002119F044BDD5F88430EAE7C4
:1022C000F8BD00BF004000500060005010B50C4643
:1022D00008B923F0C7F9074B21461B783BB1064BE1
:1022E000984204D80120BDE81040FFF7AFBF02209C
:1022F000F9E700BFD3260020005A62024FF00042E7
:1023000038B5244B244C5A664AF6CD33656C0146E9
:1023100005F00105236428BB0120FFF78FFF6368E8
:10232000DB0715D51D4B586008461D4B226BD207A5
:102330000CD4984208D1072415B1174B194A1A64D6
:1023400021F0BBFE204638BD0130EFE79842F2D0C5
:102350000024F1E70132236B13F0080305D08A4211
:10236000F8D1E8E700220E49F5E78A42E3D02021C0
:102370000A4A91620121A2F5805251600649084A39
:10238000886A800603D49342D5D00133F8E793429C
:10239000DDE700BF00900050004009500060095088
:1023A00040420F003254FFFF4FF0004238B5164B49
:1023B00001465A664AF6CD33144C154A656C2364BF
:1023C00043780B205B0043F00103D363FFF736FF34
:1023D00063688A7823F4F87343EA02136360CA7867
:1023E0004B7943EA0223A3600A798B7943EA0223FB
:1023F00023610878FFF782FFEB0744BF054B236496
:1024000021F05BFE012038BD0090005000400950D3
:10241000004000503254FFFF4FF0004270B5124BA5
:1024200004465D6E03F580535A664AF6CD330F4974
:1024300080204E6C0B64FFF701FF0B6A23F00F0343
:102440000F2C94BF234343F00F030B62F30744BFE9
:10245000074B0B64002DA2BF4FF00042054B5A669C
:1024600021F02BFE70BD00BF0080005000400950DD
:102470003254FFFF00A000504FF0004270B5104BE7
:1024800004465D6E03F580535A664AF6CD330D4916
:1024900080204E6C0B64FFF7D1FE0B6A23F4F853D7
:1024A00043EA04230B62F30744BF074B0B64002D80
:1024B000A2BF4FF00042054B5A6621F0FEFD70BDF1
:1024C00000800050004009503254FFFF00A000502F
:1024D0002DE9F04105460F461E4690464AB10123BC
:1024E0003022194C8B4002FB004436B304F5825471
:1024F00023600F21072F05EB450388BFA7F10804D0
:102500004FEA0313114895BFBC00A40004330C33F9
:1025100008FA04F2A140184419F01FFCB8F1000FAA
:1025200009D101233021084ABB4001FB05223EB1FD
:1025300002F582521360BDE8F08104F50154D7E73B
:1025400002F50152F6E700BF00C0035030C003504F
:1025500010B50446E8B10378C3B1012B03D0022BB8
:1025600014D0032B17D13F236278D340DB0712D559
:1025700023F099FD0122637821789A403023594352
:10258000064B5A5023F08AFD002010BD40F2FF3365
:10259000EAE72220F9E72120F7E700BF40D0035007
:1025A00010B50446E8B10378C3B1012B03D0022B68
:1025B00014D0032B17D13F236278D340DB0712D509
:1025C00023F071FD0122637821789A40302359432A
:1025D000064B5A5023F062FD002010BD40F2FF333D
:1025E000EAE72220F9E72120F7E700BF40E00350A7
:1025F0000122437801789A4030235943014B5A50C5
:10260000704700BF40E003502DE9F0411C4B0446E9
:10261000D3F810334B1E0E2B0D46164623D939B373
:102620004FF00008204606B323F032FB0F216778F5
:102630002378072F03EB430388BF083F4FEA0313B8
:10264000104895BFBF00BF0004330C3308FA07F2EF
:10265000B940184419F090FB85B9204656B1BDE841
:10266000F04123F015BB8846DCE7FFF7C1FFDDE74B
:102670008846DBE7BDE8F041FFF7BABFBDE8F0816F
:1026800000C0035030C003502DE9F0412B4B1746DA
:10269000D3F810234A1C06460C46407804D1D3F8E0
:1026A000241419F084FB0446002C2FDB072C4FF078
:1026B000030532782DDC4FEA840805FA08F529462F
:1026C0001F4802FA08F219F057FB294672781D4894
:1026D00002F0030202FA08F219F04EFB012317F090
:1026E000050F194A18BF194903FA04F30CBFC2F8C1
:1026F0001034C1F8103417F0060F18BF134AC2F88F
:1027000014340123104AA340C2F820342046BDE807
:10271000F081A4F108084FEA880805FA08F529466F
:102720000B4802FA08F219F027FB7278294602F0EA
:102730000302084802FA08F2CEE700BF00C00350C7
:1027400000C4035008C4035000E0035000D00350FD
:1027500004C403500CC4035070B5054616461C460D
:1027600021B94FF42070FEF787FF0146402C1BD0A3
:1027700003D8DCB1202C1BD070BD602CFCD104230D
:1027800003FB06F2530803EB4113B3FBF2F36021A2
:10279000084A203B02EAC30305F50052916005F5A3
:1027A00080529460EB61E7E70623E9E71023E7E74F
:1027B0000823E5E7F8FF7F00012100F5805310B5FD
:1027C000596040F6AA6341F2050243610023094CB7
:1027D0008360C365C26000F500520361C361C364D6
:1027E0009464054C8365A04204BF03654365516052
:1027F00010BD00BFFFFF010000C0055070B50C46C2
:10280000FFF7DAFF012300F580567360A37C0546CD
:102810001BB1836843F080438360E37C4BB1224B60
:102820009D4202BF227DA3F51033C3F8C821802347
:10283000F365228A637B28461343E2891343EB60E6
:10284000237BD4E90112FFF787FF637D1BB1AB68DF
:1028500043F48033AB60A37D1BB1AB6843F400430A
:10286000AB60E37D227E1B07120502F4E00203F059
:10287000E0431343AB65637E023B012B4FF0020341
:1028800094BF0A4A0A4AC2F82037637E03F0FD0368
:10289000012B4FF0040316BF05F50052F365D36515
:1028A00023786B6170BD00BF00C0055000D003509D
:1028B00000E003502DE9FF474FF000080E46174691
:1028C0000446CDF80080002859D022B900252846BA
:1028D00004B0BDE8F087002951D032F0030902F0BE
:1028E000030A1FD04FF0E063C0E9003801230191D3
:1028F000C0F808800293C0F8208049F0005301A975
:10290000039323F037FC4946204623F00AFC204677
:1029100023F0CAF9054628B14A464146304622F01E
:10292000CCF8D4E7BAF1000FD0D04FF000084FF048
:10293000E063C4E900380123CDF804D00293114BC1
:10294000204601A9C4F80880C4F82080039323F02E
:1029500011FC0421204623F0E4FB204623F0A4F9D7
:10296000054608B13A46D8E7009A4E44EB000135D7
:1029700022FA03F3AA4506F8013BF7D1A6E7212581
:10298000A5E700BF0400002040B2002808DB0122B8
:102990004309044900F01F008240603341F82320BE
:1029A000704700BF00E100E02DE9F04107460C460A
:1029B00086B000292FD0D1E901231E48096819F0FB
:1029C0002DF9D4E90423E1681B4819F027F9E169DE
:1029D0001A4819F023F926460025DFF87080F36ABB
:1029E00029460493EB1C0393B36A40460293AB1C45
:1029F0000193736A1036009332696B1C043519F029
:102A00000DF9102DEBD1216E0D4819F007F9A169D0
:102A10000C4819F003F9012F05D1EFF305810A489D
:102A2000103919F0FBF82146384606B0BDE8F041F0
:102A300006F0CEBE4FFF02087FFF0208AFFF02087C
:102A4000030003081300030842000308BFFF020845
:102A500030BFFFF7FDBF00BF2DE9F04105460B4E2B
:102A6000DFF83080324606EB0807CC1B20460849C9
:102A700021F0FCFFA01942460021083C22F01DF87D
:102A80006C6707F10800BDE8F08100BF000000009E
:102A90008861020808000000054BDA699B689A42C9
:102AA0001FBF044A536843F080535360704700BF10
:102AB000AC17002000ED00E010B52A4C2A4819F0B0
:102AC000ADF8D4F8E810D4F8E430580602D5274819
:102AD00019F0A4F8D4F8E430D9070BD5244819F03C
:102AE0009DF826201F4AD2F8E43043F0FF03C2F8D5
:102AF000E43010BDD4F8E4309A0704D51D4819F02D
:102B00008DF82720EEE7D4F8E4305B0704D51A48A7
:102B100019F084F82820E5E7D4F8E430180704D544
:102B2000164819F07BF82920DCE7D4F8E430D90600
:102B300004D5134819F072F82A20D3E7D4F8E4300A
:102B40009A0604D50F4819F069F82B20CAE7D4F883
:102B5000E4301B0604D50C4819F060F82C20C1E7BE
:102B60002520BFE700ED00E05600030870000308D1
:102B70008100030898000308B7000308D300030886
:102B8000F1000308070103082201030810B5204CD7
:102B9000204819F043F8A36A990137D51E4819F067
:102BA0003DF81E20A36ADA0103D51C4819F036F857
:102BB0001F20174CA36ADB0203D5194819F02EF821
:102BC0000220A36A1C0303D5164819F027F8212018
:102BD0000F4CA36A590303D5134819F01FF822209C
:102BE000A36A9A0303D5114819F018F82320084C5A
:102BF000A36ADB0303D50E4819F010F82420A36A5A
:102C00006FEA03436FEA1343A36210BD1D20C9E7B7
:102C100000ED00E0360103084F01030863010308DB
:102C20007E010308A9010308C8010308EE01030897
:102C30000902030870B5244C064624480D4618F0D6
:102C4000EDFFA36AD90435D5214818F0E7FF172016
:102C5000A36A1A0503D51F4818F0E0FF18201A4C84
:102C6000A36A9B050FD51C4818F0D8FFA16BA36A77
:102C7000180407D5194818F0D1FF1EB1A36A23F430
:102C80000043A3621920104CA36A590503D51448C8
:102C900018F0C4FF1A20A36ADA050DD5114818F000
:102CA000BDFF1B20084A936A43F47F4393620023CD
:102CB0002B7070BD1620CBE7A36A9B04F2D50A489F
:102CC00018F0ACFF1C20EDE700ED00E03502030832
:102CD0004C0203085E020308720203088C02030818
:102CE000A2020308BE020308D702030870B5264CEF
:102CF000064626480D4618F091FFA36AD80640D52F
:102D0000234818F08BFF1120A36A190703D5214827
:102D100018F084FF12201C4CA36A9A070FD51E4896
:102D200018F07CFF616BA36A1B0607D51B4818F0DF
:102D300075FF1EB1A36A23F08003A3621320124C17
:102D4000A36ADE0703D5164818F068FF1420A36AAB
:102D50009C0603D5134818F061FF15200A4B9A6AA8
:102D6000D10658BF9A6A9A6A920642BF5A6A22F4FA
:102D700000525A629A6A42F0FF029A6200232B7054
:102D800070BD1020C0E700BF00ED00E0070303089E
:102D90001E0303085E020308520303086B030308C3
:102DA00082030308D70203082DE9F041694B054669
:102DB0005F689CB00023C7F3080483F31188BFF356
:102DC0006F8F02F07F40B0F17F4F34D112F00106D7
:102DD00032D012F0400602F0080804D0B8F1000F1B
:102DE00026D1012612E0500748BF0D465A4B2968EC
:102DF00058BF01260B44012B98BF296C574818F087
:102E00000DFFB8F1000F10D0EFF389854FF00008E7
:102E1000E31E8DF80780092B00F28B80DFE803F0BA
:102E20000E7F83747B8989898987EFF38885EDE735
:102E30000D461E46EAE71E463546E7E74848454C3C
:102E400018F0ECFE8DF80780E36A9A0704D5454830
:102E500018F0E4FE002426E0E36A002B01DA424881
:102E6000F6E7E36A5B00F5D5404818F0D7FE6369E2
:102E7000AA6943F480736361BFF34F8FBFF36F8F11
:102E8000636932F8022C23F480736361BFF34F8FC0
:102E9000BFF36F8F4DF602739A421ED129683448F2
:102EA00018F0BCFE2C689DF807309BB968222946B3
:102EB00002A821F0DBFD099B002E46D0C3F30802D7
:102EC00022B96FEA53236FEA43230993204602A9EC
:102ED000FFF76AFD1CB0BDE8F081A36ADBB22BB13D
:102EE00001200DF10701FFF701FF16E0A36A13F4BB
:102EF0007F4F05D001200DF10701FFF79BFE0CE08D
:102F0000A36AB3F5803F02D3FFF740FE05E0D4F893
:102F1000E430002B9ED0FFF7CFFD0446C3E700202E
:102F20000DF10701DFE700200DF10701E5E711488A
:102F30008EE7114B17F4F87F1049114818BF194656
:102F4000A4F1100218F06AFE84E723F4FF7323F063
:102F50000103BAE700ED00E0A6ED0501D003030888
:102F6000F0030308080403082A04030839040308CB
:102F70005904030876040308B7030308A2030308EF
:102F80009B040308064B5A6942F010025A615A69C1
:102F900042F480625A615A6922F008025A6170470D
:102FA00000ED00E0EFF30880EFF3098101B5724610
:102FB000FFF7FAFE01BD00BF0A4880F30888302001
:102FC00080F3118808484FF40061401880F30988A5
:102FD000EFF314800221084380F31488BFF36F8F4E
:102FE00000F0AEF810690020D0570020084B9B6815
:102FF00083420BD1EFF3058343B1064B5A6842F08D
:1030000080525A605A6A22F400425A6207F0D2BCD7
:10301000AC17002000ED00E023498A6882F8C1E087
:103020004FF030001044EFF3098C80E8F01F1EF0E1
:10303000100F03D102F1800080EC108A302080F361
:103040001288BFF36F8F194F4FF00066CA698A600C
:103050003E60506F164C206092F9C1E0906F0023E3
:10306000936780F311881EF0100F03D00023E1EE68
:10307000103A03E002F1800090EC108AEFF3148321
:1030800023F0040383F31488BFF36F8F02F1300041
:1030900090E8F01F8CF3098802F1000004B518F0E5
:1030A000D6FEBDE804407047AC17002004ED00E0F8
:1030B000D01000201EF0040F0CBFEFF30880EFF3D8
:1030C0000980816911F8021C0229FFD001B57246FE
:1030D00018F0AEFE01BD00BF40B2002807DB01239F
:1030E0004109034A00F01F00834042F82130704735
:1030F00000E100E040B2D30758BF03310028ACBF65
:1031000000F16040064B4FEA0111C9B2ABBF00F5B8
:10311000614000F00F0080F800131954704700BFA1
:1031200014ED00E0044B054A23F07F039360BFF3E6
:103130004F8FBFF36F8F70470000000800ED00E075
:1031400008B5FDF761FBFFF7EDFF104BD3F88820C2
:1031500022F47002C3F88820D3F8882042F4A00239
:10316000C3F888204FF04042C3F83422BFF34F8F9A
:10317000BFF36F8F0023E1EE103A06F0CDFB07F0AE
:103180006DFD00F07BF806F007FC00BF00ED00E0ED
:1031900042F8203C009B0D4942F81C3C019B21F069
:1031A000010142F8183C029B42F8081C42F8143C0A
:1031B0004FF0807342F8043C002383674FF47D4353
:1031C000203A0265C0F8C030704700BFC107000850
:1031D000104B9B6883421AD1EFF30580B8B9EFF327
:1031E0001181302282F31288BFF36F8F1A7B22F095
:1031F00002021A73EFF3148323F0040383F3148899
:10320000BFF36F8F81F31188BFF36F8F70476FF03B
:1032100015007047AC1700200E461546002300B578
:10322000E1EE103AEFF3148323F0040383F31488E0
:10323000BFF36F8FBFF36F8F0B4B426F98600B4BD9
:103240001A60436E83F30B882C4686F309880020AE
:10325000034B98472046002100220023014C2047C1
:103260005BBE0108C1070008AC170020D010002089
:103270001022014B1A61704700ED00E0002330215D
:103280000348C21801334B2B82F80013F9D1704761
:1032900000E100E008B5EFF30583064A103B02EBBE
:1032A000C30152F8330049688847BDE80840FFF77A
:1032B000F3BB00BF445002081FB5094C094A23461E
:1032C0000121094800F0FAF800230393074B01217C
:1032D000E41A01A80193029400F0FAF804B010BDBA
:1032E000000004200000002018670208D00500201C
:1032F00010B50C7A0B6804F01F0223F01F031A4369
:10330000CB68640923F01F03054943EA440343F0F3
:103310000103C1F89800C1F89C20C1F8A03010BD8D
:1033200000ED00E010B5074BD3F89030C3F307234E
:10333000013B984202D8FFF7DBFF10BD6FF015008C
:10334000FBE700BF00ED00E02DE9F04F0F4614460B
:1033500006464FF000084D4D85B0B84580F292808A
:10336000D6F80490B9F1000F36D0B9F11F0F40F232
:10337000878019F01F0F40F08380D6F800A01AF064
:103380001F0F7DD1504618F07CFD834609EB0A00E3
:10339000013818F076FD834572D11BF1160F6FD0FE
:1033A0005C456DDDC5F898B0D5F89C10C5F898B0AF
:1033B000D5F8A03021F01F0143F01F0AD6E90032F2
:1033C0001A44994202F1FF391ED1CA4508D131464B
:1033D0005FFA8BF018F05EFD08F101080C36BCE7CF
:1033E0003146C5F898B0D5F89C3022F01F0203F0A2
:1033F0001F031343C5F89C30E0B218F04BFD10F1E9
:10340000160F3DD0441CE7E7C5F898B0D5F8A020CA
:10341000013B23F01F0302F01F021343CA4531464C
:10342000E0B2C5F8A030E8D018F034FD10F1160F66
:1034300026D0C5F898B0D5F89C209DF808300AF140
:10344000FF3A62F304038DF80830D5F8A0309DF8F8
:1034500008205B0863F347128DF80820D6E9003294
:103460001344009323F01F035344A3EB09030130DB
:1034700023F01F036946C0B20393FFF753FFBEE773
:103480006FF01504204605B0BDE8F08F00ED00E0B8
:103490000522044BC3F89420BFF34F8FBFF36F8F07
:1034A000704700BF00ED00E0BFF35F8F0022024BCA
:1034B000C3F89420704700BF00ED00E010B5034C46
:1034C0002278FFF741FF207010BD00BFD4260020F6
:1034D0002DE9F74F294D8A4606464FF00008AB46C6
:1034E000274FD0451BDAD6F80490B9F1000F3FD032
:1034F00031680846019118F0C4FC0199044609EBB3
:103500000100013818F0BDFC84424FF014021D4B3D
:1035100008D002FB08F36FF015024BF8032003B04C
:10352000BDE8F08F14F1160F2C60F8D01978A14285
:10353000F5DD02FB08B0C7F89840C7F89840D7F807
:103540009C4000F10801007B64F304000871D7F887
:10355000A0000C79400860F347140C71D7F89C1058
:1035600021F01F016960D7F8A01021F01F01296127
:1035700008F1010814350C36B3E700BFD410002061
:1035800000ED00E0D4260020F0B54149414CD1F8CF
:1035900090302568C3F307239D4287B075D800207B
:1035A000FFF782FF3C4BC1F8C030854216D13B4C3F
:1035B00001A82570FDF758F900250646384FAE42A0
:1035C00013D1002023783249D1F89020C2F307228A
:1035D000934254DBFFF75CFF00202FE0616801EBB2
:1035E0000011FFF785FE0130DFE70199280101EBAB
:1035F0000513DA683A40B2F5001F21D0B2F5800F0A
:103600002BD0B2F5801F38D15A689B680958013B0E
:1036100022F01F0003440120844623F01F0340EAE8
:103620004C10CDE902218DF8100002A920780593F5
:10363000FFF778FE00281DDA6FF0150007B0F0BD27
:103640005A689B680958013B22F01F0003444FF061
:10365000020C012023F01F03E1E75A689B68095818
:10366000013B22F01F0003444FF0000C062023F022
:103670001F03D4E723780133237001359FE7C1F896
:103680009830C1F8A00001339EE74FF0FF30D5E736
:1036900000ED00E024670208AAFF4400D4260020C1
:1036A0000000F0FF08B5024B1B689847002008BDDA
:1036B000E8100020034B044A1860937843F002039B
:1036C00093707047E8100020AC01002008B54FF45B
:1036D00000520349034818F062FA002008BD00BFF9
:1036E00058270020EC1000204FF0FF324FF0FF333E
:1036F000014806F01BBA00BFBC010020014806F0DB
:103700008DBA00BFBC01002038B50546FFF7ECFFBD
:103710002A460821074818F0D3F9044628B925B1EC
:1037200021F0B2FB0C22044B1A50FFF7E7FF2046B2
:1037300038BD00BFEC1000200C00000010B504469E
:10374000FFF7D2FF2146034818F07BF9BDE810408F
:10375000FFF7D4BFEC10002070B5A0FB01543CB9BA
:103760002846FFF7D1FF064640B90026304670BD17
:1037700021F08AFB0C22044B1A50F6E72A46214618
:1037800021F09BF9F2E700BF0C00000070B5416921
:103790000446867A0A4D59B1437ADB0706D42C23B6
:1037A00003FB06535B6A1B689B68984700236361B1
:1037B0002C20214606FB0050BDE870401BF0E0BB0A
:1037C0009C0400202C22024B02FB0030704700BFFB
:1037D0009C0400202C21827A054B01FB02339A6A5B
:1037E0001B7F801A1B3323F00303B0FBF3F07047F9
:1037F0009C04002038B52C24827A064B04FB02334B
:103800005B6AD3E901240C601568FFF7E3FF04FB52
:10381000005038BD9C0400202DE9F04385B00546DA
:10382000684690461C4603911BF01AFEDDE90067CE
:10383000EFF31189302383F31288BFF36F8F6B8B03
:10384000002B41D02A8B9A4225D9002200232846FA
:1038500006F034FA0446F0B189F31188BFF36F8F94
:10386000039B002B41D032463B4668461BF01DFEB1
:103870002C21A27A254B204601FB02335B6A03A967
:103880001B681D68DDE90023A847606170BB204606
:10389000FFF77CFF24E0698B4B1E6B8389F3118853
:1038A000BFF36F8F2B7F2A8BAC6A1B3323F003038C
:1038B000521A02FB0344154B154AEB1A9B10534353
:1038C000A3722B7FE372CBE789F31188BFF36F8F6D
:1038D00023464246284606F0F1F904460028BFD1A7
:1038E0000024204605B0BDE8F08363610123002574
:1038F0002381039B29466382E27A656004F1180004
:1039000021F0DBF863692582E360EAE79C0400208C
:10391000A38B2EBA70B52C250C4C00B970BD037A60
:103920004668002BFAD0013BDBB20372002BF5D1C5
:10393000C3604360837A05FB03431B6A13B1984756
:103940003046EAE7FFF722FFFAE700BF9C040020B9
:1039500010B5084C20461BF0B8F92269A16813681D
:10396000204643F0200313600B68034A0521BDE89D
:1039700010401847C44F020801000600F7B506467C
:103980000D460D488AB2836831461B689847002867
:1039900010DA00240CE02F1B042F28BF042704F0AA
:1039A00047F93A46019001A9301921F05FF83C44EB
:1039B000A542F0D803B0F0BDE44F020810B50346AD
:1039C0000548826814688AB21946A0470028B4BF27
:1039D0006FF00400002010BDE44F020830B5002451
:1039E0000A4D0B4B87B028460393CDE904441BF0E6
:1039F0009FFB03AB284600934FF4A3620A230549BB
:103A000006F066FB204607B030BD00BFD0050020A1
:103A1000D8040308584700200146014806F098BB27
:103A2000D0050020037830B5012B13D0022B27D00E
:103A30007BB90A46184B03F1100453F8045BA34208
:103A400042F8045BF9D11B78137043884B731B0A4F
:103A50008B7330BD0A46104B03F1100453F8045B1E
:103A6000A34242F8045BF9D11B7813704368C3F397
:103A700007224B731B0CCB731B0A8A730B74E8E78A
:103A800000F1100350F8042B984241F8042BF9D1AF
:103A900003780B70DDE700BFE104030808B518F0F8
:103AA0003CFB06F051FE044B1B680BB10A20984703
:103AB000BDE8084006F05CBEF810002038B50446AA
:103AC000084818F00BFA054648B1631EDBB21F2BFD
:103AD00096BF054A0021D15C0C3018F06EFA2846DA
:103AE00038BD00BF78050020F20403080F2810B588
:103AF0000CD80D280CD90A4818F0F0F9044618B172
:103B000004210C3018F059FA204610BD1328F2D0C9
:103B100009B10448F0E70220BDE81040FFF7CEBF2E
:103B2000A4050020F404002070B5C6683378B6F808
:103B3000014083B90F21204601F060FDF37805466E
:103B400050B90A4A118831B96FEA04506FEA10502F
:103B50001080074A137070BD4372012101F0C4FC4C
:103B60002846BDE8704001F099BC00BF3C2600200B
:103B7000D526002010B5084C0146062294F86F00A7
:103B800001F072FF38B994F86F000522BDE81040CB
:103B9000024901F069BF10BD00000020BE04030807
:103BA00010B5012104460C3018F028FA2146BDE872
:103BB00010400623014A007818F06CBBF467020835
:103BC00010B5012104460C3018F018FA2146BDE862
:103BD00010400223014A007818F05CBBC467020859
:103BE0002DE9F04788461646824600286AD0002311
:103BF000DFF8D890D9E8EF4FC9E8E23F002AF9D1C1
:103C0000002C5FD02046FFF7E5FD0C232E4D274604
:103C100003FB0050438853450DD0D9E8EF3FC9E876
:103C2000E27F002AF9D1002B4CD01F463846BDE870
:103C3000F047FFF76FBEA64208D0204618F049F9BA
:103C4000328AF16804F10C0018F0AEF92046FFF753
:103C5000C1FD0C2606FB00504368ABB1B8F1000F64
:103C600012D12046FFF7B6FD012106FB0050426845
:103C7000D2E90003127A03F01F06B1405B09DAB102
:103C800000EB830018F0B8FA2046FFF7A3FD0C26DE
:103C900006FB00508368002BC8D02046FFF79AFD32
:103CA000704305F800802046FFF794FD06FB0055A1
:103CB000A86806F035F8B9E7C94300EB830018F0AF
:103CC00000FBE1E7BDE8F087FC1000204801002080
:103CD0002DE9F8430C4606F037FDE368228A19788F
:103CE000022964D0042905D02046FFF713FE6FF0A7
:103CF000150405E0022A08D82046FFF70BFE002431
:103D000006F036FD2046BDE8F88358783E2808D1F5
:103D1000032AF1D0DB78012B01D00A2B47D10326EF
:103D200004E018F057FA0646F0073ED504F10C05FA
:103D3000284618F07BF9012107462846B4F8109070
:103D400018F054F90221284618F058F980460078F6
:103D50003E2816D1E3681B78012B31D00A2B2FD0D7
:103D6000022541F2F403194A19491A4817F063FF72
:103D7000002383F31188BFF36F8F0323184602DFFC
:103D800004E018F027FAC1070546EAD5124A0623CF
:103D9000214698F8000018F07DFAAA0712D5636949
:103DA000A4F8109013FA87F7E760B307A7D5214668
:103DB0000A4818F097F80A490A481BF08EF99EE75E
:103DC0000325E3E72046FFF7A5FDEEE7120503080C
:103DD000460503085F050308946702084C010020AC
:103DE000E0010020B806002070B5314818F08FF8C7
:103DF000044600285AD000F10C05284618F006F9B0
:103E0000022805D004282FD02046FFF783FD21E0AB
:103E1000238A032BF8D90421284618F0EFF8FF2253
:103E2000438806882276228AC6F30B009A42608372
:103E3000EAD10F2101F0E2FB05460028E4D001F0B1
:103E400019FC21462076320B284618F0F8FD28464A
:103E500001F024FB174BD3F84C313BB3BDE8704065
:103E6000154916481BF039B92846022118F0C6F842
:103E7000054600783E2812D018F0ACF910F0020682
:103E80000DD140F664430E4A0E490F4817F0D3FE99
:103E900086F31188BFF36F8F0323184602DF0423D4
:103EA00021460A4A287818F0F5F9ADE770BD00BF41
:103EB0004C01002000000020E0010020B806002096
:103EC000120503087C0503085F050308D467020890
:103ED00010B5C1E900239DF808300C460B72FFF7BE
:103EE00079FC0C22024B02FB00335C6010BD00BF6A
:103EF000FC100020F8B502460B46104817F0EEFF04
:103F00000446C0B104210C3018F03DF82046FFF7FC
:103F100061FC0C2700260A4D07FB00504680204616
:103F2000FFF758FC07FB005086602046FFF752FC65
:103F300007FB00556E602046F8BD00BF4C05002011
:103F4000FC100020034B0146D3F86C018268926894
:103F5000104700BF000000200421014818F04CB9B0
:103F6000D000002070B5274D0221284618F044F9F2
:103F700010EA010442D128466FF00401A5F1D006F1
:103F800018F09FF900F082FE01F064FB1E4BD6F89A
:103F90006C011C8083685B685BB96FF00201194893
:103FA00018F08FF9042118F027F96FF085042046E6
:103FB00070BD984710F1580F0446EED020B104218F
:103FC000284618F019F9F2E71048FFF70FF82146D4
:103FD000402206F1800020F070FD0D4B6FF00101D2
:103FE00018689A889B7945F8680C2846F471A6F8F9
:103FF0006C2086F86E3018F064F9D8E76FF077041B
:10400000D5E700BFD00000203C260020B8060020E5
:10401000C50403080048704731FF0208014806F054
:1040200051B800BFD001002070B505460C4659B903
:104030004FF0FF304FF0FF31FFF75CFF044618B937
:104040006FF06805284670BD2046FFF7C3FB0C22C1
:10405000154BA61802FB003330465D8017F0E6FFD3
:1040600003280BD90321304617F0AFFF0580238AC0
:104070000121033B8370304617F0AFFF40F6354314
:104080009D4208D12046FFF75DFF054648B1204616
:10409000FFF740FCD6E7214604481AF066FFFFF719
:1040A000BDFF0025CEE700BFFC100020540100201A
:1040B00038B502460B46244DD5F8541109B90020F5
:1040C00038BD05F5987005F065FE0028F7D100228F
:1040D000002305F5AA7005F0F1FD044668B940F625
:1040E00074431A4A1A491B4817F0A5FD84F3118836
:1040F000BFF36F8F0323184602DFD5F8480120B1C4
:10410000FFF708FC0023C5F84831204617F015FFDB
:10411000C5F848012046FFF715FF98B10E4805F095
:10412000FFFD2046FFF756FB0C220C4B1F2102FB24
:10413000003022464088FFF753FD2046FFF7EAFB98
:10414000FFF76CFF0120BBE7000000201205030809
:10415000890A03085F05030830010020FC100020D5
:104160002DE9F04F064617460C4687B069B94FF067
:10417000FF304FF0FF31FFF7BDFE044660B96FF02E
:104180006805284607B0BDE8F08F887AFFF71AFB6C
:10419000454B834240F082800122002168461AF09C
:1041A000FDFE2046FFF716FB0C23DFF820A103FBE2
:1041B00000A0C0F808D0204617F0BFFE01463046E8
:1041C000FFF732FF054618B12046FFF7A3FBD8E7FB
:1041D00020F05AFE354B1A58354B9A4220D1DFF861
:1041E000F0B034481AF0D6FE002181464FF4A020EA
:1041F000FFF75EFF804688B94FF4F97359462E4A9F
:104200002E4817F018FD31462D4817F014FD88F39D
:104210001188BFF36F8F0323184602DF4C45E0D1AE
:104220004FF4A0220023684605F0B4FD804698B103
:104230004FF4FC73204A2349204817F0FCFC424607
:104240003146214817F0F7FC002383F31188BFF3B0
:104250006F8F0323184602DF2046FFF7BBFA0C23BB
:1042600058431AF80060AEB12046093EFFF752FBF2
:10427000092E0CD8DFE806F0150B0B08050B0B0B0D
:104280000B126FF00B057CE76FF00C0579E76FF010
:10429000040576E7002F97D03C6072E76FF01505B4
:1042A0006FE76FF06E056CE74C050020080000001A
:1042B000580C002054010020120503085F05030874
:1042C000B2050308D2050308DB050308FC10002033
:1042D000AA050308F7B5002141F2030001AAFFF780
:1042E0003FFF044600284DD1019AA04DD16805F149
:1042F0007803D1F80100D1F8051003C31046FFF789
:1043000009FB214641F2010001AAFFF729FF0446FB
:10431000002837D10198C3685A7885F870205A88E8
:10432000A5F872201A7985F87120B3F80720A5F84E
:104330007420B3F80530A5F87630FFF7EBFA214684
:1043400041F2020001AAFFF70BFF0446D0B9019F1A
:1043500005F18006FA68531C4132344618685968E2
:10436000083303C493422646F7D13846FFF7D2FA02
:1043700018F01AFB044628B995F87C30590604D485
:104380006FF01204204603B0F0BD014601AA42F2CC
:104390000300FFF7E5FE04460028F3D1019B744EAD
:1043A000DA68D2F80100D2F8051003C61846FFF704
:1043B000B1FA214642F2020001AAFFF7D1FE0446FB
:1043C0000028DFD1019CE368B3F8012091B249B124
:1043D000D97839B1A5F80421DA78114606F1280018
:1043E0001AF0DCFD2046FFF795FA1F2395F87C6054
:1043F000A5F8203116F0200618D14FF0FF304FF00D
:10440000FF31FFF777FD044600287ED002210C30F3
:1044100017F0C4FD0123214603704670324640F672
:104420006D40FFF79DFE04460028ABD195F89C3007
:104430001A0712D5002142F21C0001AAFFF790FED4
:10444000044600289ED10198C368D3F80120D3F810
:104450000530C5E93823FFF75DFA4FF0FF304FF024
:10446000FF31FFF747FD044600284ED008210C30ED
:1044700017F094FD95F8D83095F8D92013F0020F75
:1044800014BF2F230F2312F0090F4FF0000218BFA3
:1044900043F4006303701B0A214643708270C270AC
:1044A000027142718271C27142F20100FFF758FE3F
:1044B000044600287FF466AF95F87C30B5F8041107
:1044C0009B0625D4C9B941F2050001AAFFF748FEB1
:1044D000044600287FF456AFB5F80431019C4BB96F
:1044E000E368B3F80120A5F804219A882148114611
:1044F0001AF054FD2046FFF70DFA4FF0FF304FF051
:10450000FF31FFF7F7FC044638B96FF0680439E76C
:104510000029F2D16FF0040434E708210C3017F0C1
:104520003DFD102303708823437002230022C370D3
:10453000202321468270027142718271C37140F65C
:104540000140FFF70DFE044600287FF41BAF00F08A
:1045500007FB044600287FF415AF01F04BFB04462F
:1045600000287FF40FAFFFF7F7FC0BE700000020F7
:10457000D80000200801002010B5FFF7ABFE034B68
:104580001B6813B1BDE81040184710BD141100207E
:1045900073B5254D0646D5F86C011AF096FB002838
:1045A0003BD06FF0020105F1D00017F08AFE012127
:1045B00017F022FE10EA010432D11C4B1E600A469D
:1045C00005F598701AF0EAFC05F5AA701AF0C1FC1E
:1045D00017481AF0ADFD6FF007034FF496621549C6
:1045E0001348009405F074FD134911481AF0FBFDBF
:1045F000D5F86C01114983681B689847044648B98F
:1046000026B902B0BDE87040FFF764BE05F1C000F6
:1046100005F058FD204602B070BD6FF01204F9E7B6
:104620006FF07704F6E700BF0000002014110020AF
:10463000B8060020704C002020060308D13C00087A
:104640002DE9FF410026514BB0F80180198848F44C
:104650007042914204BF1E804D4B00F1040408BF1C
:104660001E78C3780546012B08BF4A4B204614BF6D
:10467000002793F86F7017F04CFD2146A8B1012771
:1046800002A817F03BFDD5F81130CDF80130B5F890
:104690001530ADF80530EB78012B1CD013214046C6
:1046A00017F085FF04B0BDE8F081384617F0FFFF32
:1046B000034600682F7902909A889B796868ADF864
:1046C0000C208DF80E30A288A3790090ADF804205C
:1046D0008DF80630DFE702A8FFF74CFA0446002801
:1046E000DCD00346B5F8012023F8702B9DF80E208E
:1046F0000298BDF80C1020679A7100229980B5F8D5
:104700001730A4F88630B5F81930A4F88C30B5F815
:104710001B30A4F88E30EB786272012BE37024D149
:104720008DF80070BDF804209DF806300098A4F8BC
:104730007B2084F87D30C4F8770000F0AFFA237A4C
:10474000144AC3EBC3039918D358C4F87E308B883E
:10475000A4F882308B7984F88430D2E9381303F0DE
:104760003F03194301D000F065FC0721204600F00B
:10477000BBFE26B101212046667200F0B5FE204640
:1047800000F0AAFF204600F089FE8BE73C260020BF
:10479000D52600200000002000B5C36889B01A7833
:1047A00032B13C2A32D109B05DF804EB17F091BD6B
:1047B0008DF80020B3F80120ADF80120DA788DF8EB
:1047C0000320B3F80B20ADF81720B3F80D20ADF897
:1047D0001920B3F80F20ADF81B205A7C8DF81D204E
:1047E000586801901A899B7AADF808208DF80A3034
:1047F000084B68461A689B88CDF80B20ADF80F303F
:10480000CDF81120ADF81530FFF71AFF09B05DF8AB
:1048100004FB00BFD204030838B5044603210C3062
:1048200017F0ECFBE3680578197840F63543B0F8EB
:10483000010098420AD02246FFF7D2F935B1044868
:1048400005F06EFABDE83840FFF7E8BB38BD00BFA1
:104850003001002038B5042104460C3017F0CEFB9F
:104860004578017822464088FFF7BAF935B1044807
:1048700005F056FABDE83840FFF7D0BB38BD00BFA1
:1048800030010020F8B506460024094DEF79E3B267
:104890009F4202D86FF0010007E02946304617F02A
:1048A000FEFE0735631C08B12046F8BD1C46EEE746
:1048B0000000002070B5144E06223146044620F058
:1048C00008F9E0B14FF0FF304FF0FF31FFF712FB76
:1048D0000546B0B1062221460C3017F065FB0022D8
:1048E000294642F20500FFF73BFC48B933462268EF
:1048F00043F86929A288B280012283F86820002049
:1049000070BD6FF06800FBE76900002037B5044612
:104910000D4689B12846184917F0C1FE60B9174AFB
:104920002968C4EBC4041151A318AA889A80AA79F3
:104930009A71002003B030BD684617F0D1FB002803
:10494000F8D16846FFF79EFF0028F5DA0B4A009879
:10495000C4EBC40410519DF80610BDF80400A31860
:1049600098809971002DE4D012592A609A88AA8003
:104970009B79AB71DDE700BFC50403080000002090
:1049800070B5044611B16FF0150070BD80B11B49C0
:1049900017F085FE60B92046FFF774FF002827DA7C
:1049A0002378012BEFD1A37903F0C003C02BEAD108
:1049B000134DEB79012B1ED005F1D003D3E8AF3FA7
:1049C000DB0707D4002CDED020460C4917F067FE29
:1049D0000028D8D1EE792146731C3046EB71FFF7E1
:1049E00095FF08B93046D0E7EB79013BEB71CCE796
:1049F0006FF07700C9E76FF00B00C6E7C504030846
:104A0000000000202DE9F3410446D8B1002141F215
:104A1000090001AAFFF7A4FB054698B9019E0622EA
:104A2000D6F80C80104908F10107384620F051F8FB
:104A300028B1062238460D4920F04BF830B93046EF
:104A4000FEF768FF002002B0BDE8F081D8F8013021
:104A50003046C4F80130BB882570A4F80530FEF755
:104A600059FF0120EFE700BFD2040308CC0403087C
:104A700007B56846FFF7C6FF044BD87118B1694601
:104A80000020FFF743FF03B05DF804FB00000020A7
:104A90002DE9F0410D4617461C460646002856D023
:104AA000002B54D00A03037808D56D074FD417F0B4
:104AB0000BFE002849D1012323700CE0E9072CD517
:104AC00026480FB1AA0608D4C3EBC302825C012AB0
:104AD00012D002B92270002037E090F8D820510699
:104AE00038D5C3EBC302825C012A05D002B922701B
:104AF000237843F00203DFE74FF00108072111FBA1
:104B000003810144304617F0D7FDF0B984F80080E6
:104B1000002FE0D0AB06DED5EAE76A0711D50F49D2
:104B2000C3EBC3028E5C012E08D1072212FB036384
:104B3000194417F0C1FD40B92670EBE7002EE9D10A
:104B4000FAE717F0C1FD01232370BDE8F0816FF093
:104B50001500FAE76FF08500F7E700BF00000020BE
:104B600010B50A4CE3790BB1002010BDFFF780FFB0
:104B70000028FAD1E379002BF6D117F0C0FD002808
:104B8000F3D1601CBDE81040FFF794BE0000002088
:104B9000F8B545680646690535D4046914B115F0C1
:104BA000010330D0194F3078FB7983422BD9C0EB09
:104BB000C0000722164938441FF08BFFA8B115F03A
:104BC000010306D197F87020082A02D8B2689F2AFC
:104BD00019D915F0300F09D0ACB1EA060AD405F4A2
:104BE0006035B5F5603018BF0120F8BDEB0601D483
:104BF000002CF4D1D6E902239A4204D81F2A02D904
:104C0000B3F5804FEBD90020EFE700BF0000002094
:104C1000C5040308072208B5034909301FF059FFEE
:104C2000003818BF012008BDC5040308F8B5154BAE
:104C3000067804460D4683F86F60FFF7EBFF70B906
:104C40003046114900F0CCFE044610B96FF00B005D
:104C5000F8BD052100F048FC00202C60F8E704F1C5
:104C600009073946304617F0C7FF40B92078394662
:104C700000F0B6FE04460028E8D00621EAE76FF00F
:104C80001500E5E700000020BE04030850220021C3
:104C900001481FF012BF00BF1800002000487047F5
:104CA00018000020F0B5054685B00F4817F03AFD12
:104CB0001F460306164613D50B4817F033FD04466E
:104CC0000A4817F026FEC4F3C0240A460290334671
:104CD0002946CDE90074054817F0A9FD05B0F0BDDF
:104CE0006FF00A00FAE700BF28000020180000203B
:104CF0002DE9F04F9A460023D1F810908DB0B9EB12
:104D000003060546914818BF01260592079317F040
:104D100009FD0C46410740F10D812046FFF738FFA1
:104D200028B96FF0150B58460DB0BDE8F08F20463E
:104D300017F0E1FC80460028F3D005F11007384653
:104D400017F0F0FC0206C0F3C01300F1F680CDE9C5
:104D50000933CDF82B30A3686068ADF82030E368E4
:104D60006FF48071ADF8223017F0CDFC8DF82D0076
:104D7000764817F0DAFC2378754A2B7082F86F308A
:104D80002846324661680DF12503FFF781FE834610
:104D90000028C8D105F10903B9F1000F18D0216925
:104DA0000868C5F809008888988089792046997133
:104DB00017F0BFFD63680646D8071BD49A0503D4D5
:104DC000169B0BB9022E57D102238DF8243023E015
:104DD000604A20461168C5F8091091889279998037
:104DE0009A7117F0A6FD63680646D907E6D58DF8D7
:104DF000249011E013F0100F0CBF01230423D846B8
:104E00008DF8243023691968CDF826109988ADF8FB
:104E10002A109B798DF82C304FF0FF304FF0FF3186
:104E2000FFF768F88346002800F08A800F2208A95F
:104E30000C3017F0B9F80022594642F20600FFF78D
:104E40008FF900287FD1B9F1000F1BD06368DB0711
:104E500026D42846012117F07CFD079D83460028B3
:104E600060D0002D3FF45FAF2846002100F03CFBEE
:104E7000284600F013FB56E70323DDF858808DF831
:104E80002430C9E7179B524600932846CDE9018696
:104E9000169B059917F0CBFC83460028D6D042E735
:104EA000284607A9FFF7C2FE83460028D1D010F19B
:104EB0000C0F7FF438AFB9F1000F7FF434AF6368A3
:104EC00098073FF530AF626882F00202C2F3400BF0
:104ED0000BF001020E21384617F094FC731E5A4263
:104EE0005A410821384617F08DFCB11E4A424A410A
:104EF0003846092117F086FC62680A21384602F01C
:104F0000010217F07FFC42460B21384617F07AFC6D
:104F100062680D213846C2F3800217F073FC4FF02F
:104F2000000B00E715B1284600F0B8FAB9F1000F00
:104F3000CED1C8E76FF00A0BF5E66FF0770BF2E61B
:104F40006FF0680BEFE68346EDE600BFD00000206F
:104F500000000020C504030873B51546069A0C46E8
:104F6000CDE900322B460A4601461148FFF7C0FE44
:104F700021460646002340F201109D4202D13046F0
:104F800002B070BD0A88824204D14A6812B1127818
:104F9000D20702D401330831EFE7064906481AF078
:104FA000CDF84FF470220023034805F02FF9E6E70F
:104FB00018000020A5C901083000002010B51948CC
:104FC00017F0EDFC6FF48041174817F0AEFB164860
:104FD00017F0A8FB03461A06C0F3C01021D51248EB
:104FE00017F0A0FB430513D50E48FFF713FE034649
:104FF0000E49087E93B905220D4900F035FD04469F
:1050000030B10021417200F06FFA204600F046FAFC
:10501000BDE810400021034817F09BBC0622213157
:10502000EBE710BD18000020280000200000002041
:10503000BE04030873B5304817F074FB10F4804FBA
:105040002D4C56D0204617F06DFB030651D4204658
:1050500017F068FB46054CD501A9A4F11000FFF735
:10506000E5FD002845D1A4F11000FFF7D3FD02466D
:10507000204617F057FBC0F38031204617F052FB53
:1050800081F0010145054FEA41011B4848BF41F04D
:10509000010117F047FB800448BF41F004011748A5
:1050A0000DF10303FFF7F4FC054610BB0121134883
:1050B00017F04FFC019E28B9304602B0BDE87040A1
:1050C00000F0ECB92946304600F00EFA6FF480414A
:1050D000094817F02AFB0546304600F0DFF96B045B
:1050E00007D5D4E8EF3F43F48043C4E8E23F002A09
:1050F000F7D102B070BD00BF2800002018000020CA
:1051000070B505460B4B1C6844B154F8143C143C74
:1051100013B12846697A98476469F5E7064C074E4B
:10512000B44200D370BD236813B12846697A98470A
:105130001834F5E74C1100204C5302084C53020878
:1051400010B50446FEF746FB044901EB001120466A
:1051500017F020F8BDE81040FEF760BF18110020DE
:10516000002270B50446D1E901560748C1E9012281
:1051700019F0FBFE3DB1314620462B46BDE870409C
:105180006FF06D02184770BD8404002013B5837A58
:105190000446072B21D10430D0E8EF3F43F480626E
:1051A000C0E8E12F0029F7D1590516D417F01DFCEE
:1051B000C2030CD50A4B93F8D930DB070DD500217B
:1051C000022320461A46009117F032FA05E02046E5
:1051D00017F013FAA37A072BECD002B010BD00BF72
:1051E0000000002070B50546002200230E4804F0A0
:1051F000D1FDB8B90D4B1C6834B154F80C3C143CCB
:1052000003B198476469F7E7094C0A4EB44204D3E6
:105210002846BDE8704004F055BFA36803B1984725
:105220001834F3E770BD00BF3C0400204C1100208F
:105230004C5302084C5302082DE9F843044630272A
:105240000025DFF85080EFF3118387F31288BFF356
:105250006F8FE16929B983F31188BFF36F8FBDE8C0
:10526000F883206A0A68814208BF2262E26183F300
:105270001188BFF36F8FD1E901694046C1E901553B
:1052800019F073FE1EB1002249462046B047FEF7D2
:10529000C5FED8E7840400200448B0F8043100F5C6
:1052A0008470002B08BF0020704700BF0000002062
:1052B00030B504461FF0E8FD0D460D4A0D498BB090
:1052C0000858D2F8C810884205D120460BB0BDE876
:1052D0003040FFF7B1BF24342146104619F0FDFEDF
:1052E0001DB16946204619F008FF0BB030BD00BF64
:1052F000580C00200800000038B5002204468A42FD
:1053000002D10024204638BD012004F1C803D3E8AF
:10531000EF5F002D04D1C3E8EC0FBCF1000FF6D114
:1053200002D0D0340244EAE7002CEAD0C82200219F
:1053300020461FF0C2FB04F14000044919F0FEFEB4
:10534000034904F1240019F0ACFEDBE7155B00080B
:10535000F1C9010838B50122044600F1BC03D3E8C5
:10536000EF5FC3E8E12F0029F9D17DB917F0B9FB50
:1053700005F0EAF9094BC4F8B850D3F8281104F144
:10538000B80239B9C3E9492205F0F2F9BDE838405D
:10539000FEF744BE0A60C3F82821F5E700000020AC
:1053A00070B53B4B5A8B32B13A4DD5F8244134B9E4
:1053B0000024204670BD1B68002BF5D1F8E754F897
:1053C000B83903B1B83B0026334901E01C46134607
:1053D000B5F80421002A59D0D5F810214AB904F1B2
:1053E000B806002BE4D0D3F8B820002AEED0B83AA3
:1053F000ECE70A68002AF2D0D4F8A420002AEED004
:10540000D4F8A820002AEAD0D4F8AC20002AE6D0AC
:10541000A37A072B0DD12046904750B104F1C0006C
:1054200017F0E3FA022804DC2046BDE8704017F0CC
:1054300058BBD4F8B83004F1B802FEB9D5F8281139
:10544000C5F824318A4201D1C5F82831002204F17F
:10545000BC03C4F8B820D3E8EF1FC3E8E02F00284E
:10546000F9D12046D4F8AC3098470028A1D0A37ACF
:10547000072B9ED12046FFF76DFF9AE73360D5F8E2
:1054800028319A4208BFC5F82861DFE79368FFDE3C
:1054900020050020000000208404002037B5C8301B
:1054A00010F8C65C10F8C54CD0E8EF3F5A1EC0E8B3
:1054B000E12F0029F8D101A8019317F096FA0128ED
:1054C0000BD1074804F02CFC064804F0FBFD012D2D
:1054D00003D1012C01D1FFF7ADFD03B030BD00BFFA
:1054E0003C0400200002002070B5857A04468D42FD
:1054F0007ED0817225B98378082B01D017F0F1FA9C
:10550000A37A012B09D13B4D05F584766169002909
:105510005CD1BDE87040FEF781BD072B09D0002BA0
:1055200066D1A378042B20D12046BDE87040FFF758
:10553000B5BFA378042B5BD000212F4805F098FD60
:105540000023C4E90D33E378012B51D1A37804F192
:105550004000012B04BF032384F894304FF4203221
:10556000BDE87040002304F01DBE082D40D801A303
:1055700053F825F0F155000899550008BF5500086B
:10558000295500082955000829550008BF5500086D
:10559000F1550008F155000804F14005284619F0BE
:1055A000D9FD20460121FFF783FE204617F03EFA81
:1055B0002846BDE870400022002304F027BE637A2D
:1055C000002BB1D02046FFF79BFDADE7A2690B6829
:1055D000914208BFA36120466361FFF7C1FDB5F8A2
:1055E0000431002B14BF3046002004F099FB8DE7F6
:1055F00070BD00BF0000002010020020024610B560
:1056000007480C46012117F083FA034610B900231E
:10561000184610BD82781442FAD1FFF73FFFF6E733
:10562000A0070020F8B5074609480D46164617F0B2
:1056300058FA044650B183781F4203D1BDE8F840C0
:10564000FFF72CBF3146A8472046F7E7F8BD00BF5B
:10565000A007002000220F200149FFF7E3BF00BF91
:1056600055CB0108002201200149FFF7DBBF00BF35
:105670008D510008034BC01A034B00115843C0B2B0
:10568000704700BFA0070020C54EECC470B51C4693
:10569000144305460E460AD01FF0F6FB0B49085886
:1056A0000B49D1F8C810884204BF002213460949AB
:1056B000002D14BF2846084616F010FC044618B109
:1056C000711D0C3016F05FFC204670BD0800000014
:1056D000580C00209C04002010B50446054804F036
:1056E000F1FC204600F0B6FA2046BDE81040FFF776
:1056F00007BD00BFF001002000232DE9F04F87B067
:1057000003930593FFF74CFE0446002800F0B38096
:10571000837A072B40F0CE806B4FD0F8A430B7F8D7
:10572000041104AA98470646002800F0A180B7F8A3
:105730000421049B9A4206D30146D4F8A85020467F
:1057400005AB03AAA847DDE9039A059B0193338AB9
:10575000002B00F0B280304616F032FD8046002863
:1057600040F0AE80B7F80431DFF86CB1002B14BF05
:10577000584600200022002304F00CFB70B90022E0
:105780000023524804F09AFA0546A0B9B7F804314C
:10579000002B18BF5D46284604F0C2FA6FF00B05D7
:1057A0003046FEF7B7F8B9F1000F5DD02A46204623
:1057B0000199C84758E0019BC0F804908360B7F88E
:1057C00004B10022DA454FF000034FF000014048D9
:1057D00098BF1FFA8AFBFEF71FF8814650B1FDF70C
:1057E000F9FF3C4B5A4603EB00133146484616F08E
:1057F000ACFC8146B7F8043194F8C4609A458CBF7C
:105800004FF00108023684F8C48098BFF6B204F164
:10581000C008D8E8EF3F0133C8E8E23F002AF8D1DA
:1058200000232B60A3694BBBC4E90555A378012B6A
:1058300027D0D8E8EF3F013BC8E8E23F002AF8D183
:10584000294604F1140017F0D6F84846FEF762F82E
:1058500020462946FFF784FCB7F804311E48002B88
:1058600008BF002004F05CFA1321204617F084F9E9
:105870002046FFF713FE07B0BDE8F08F1D60A5615D
:10588000D4E709F10C0A0421504616F09EFB238848
:1058900006F0FD0643EA06330380B9F81030022112
:1058A000043B4380504616F098FB4846FEF74AFBFF
:1058B0000028BED1FEF7B2FBDAE76FF079056FE79B
:1058C0006FF004056CE700BF000000208404002096
:1058D000200500201811002008010020F8B5031D44
:1058E0000446184617F081F8820415D5B4F88620CE
:1058F000B4F8881091420FD8B4F88A1091420BD3B3
:10590000D4E92312914207D1D3E8EF1F21F40051CB
:10591000C3E8E21F002AF7D1104B1D686DB155F89E
:10592000046C143D3EB12046B4F88E30B4F88C209F
:10593000B4F88610B0476D69F0E7094D094FBD42D4
:1059400000D3F8BD2E693EB12046B4F88E30B4F8CD
:105950008C20B4F88610B0471835F0E74C110020C1
:105960004C5302084C5302082DE9F0410746084603
:105970000D4616F087FD064618B900263046BDE8EC
:10598000F081144B1C6884B154F8083C143C0BB9EA
:105990006469F8E72946384698470028EDD028463C
:1059A00016F070FD0028F3D1E7E70B4CDFF82C80F0
:1059B0004445E3D2E3680BB91834F9E72946384681
:1059C00098470028D9D0284616F05CFD0028F3D16E
:1059D000D3E700BF4C1100204C5302084C5302087F
:1059E00038B505460C460E480121FFF785FCB0B1DD
:1059F000057223680367A388A0F87430A37980F840
:105A0000763001238370074BC0F8A430064BC0F8F2
:105A1000A830064BC0F8AC30054BC0F8883038BD14
:105A2000A0070020215D0008D5C90108C9C90108E7
:105A30001800280070B505460A480E4617F051F8C0
:105A4000044620B18378012B04D0FFF727FD002402
:105A5000204670BD3246294617F0AEF80028F7D12F
:105A60002046F2E7A0070020F8B505460E480E468E
:105A7000174617F036F8044620B18378012B03D07F
:105A8000FFF70CFD00240DE036B13246294617F031
:105A900093F808B92046F3E7A37ABB42FAD1237AF8
:105AA000AB42F7D12046F8BDA007002038B5044628
:105AB00008460D4616F0E6FC38B3154B93F8D8307F
:105AC000990707D4E37873B129462046BDE83840EA
:105AD00000F092B994F895309A07F3D5201D16F08E
